:020000040800F2
:1000000038050020CD010008D1010008D301000807
:10001000D5010008D7010008D90100080000000040
:10002000000000000000000000000000DB010008EC
:10003000DD01000800000000DF010008E101000808
:10004000E3010008E3010008E3010008E301000800
:10005000E3010008E3010008E3010008E3010008F0
:10006000E3010008E3010008E3010008E3010008E0
:10007000E3010008E3010008E3010008E3010008D0
:10008000E3010008E3010008E3010008E3010008C0
:10009000E3010008E3010008E3010008E3010008B0
:1000A000E3010008E3010008E3010008E3010008A0
:1000B0007D030008E3010008E3010008E3010008F4
:1000C000E3010008E3010008E3010008E301000880
:1000D000E301000895030008E3010008E3010008BC
:1000E000E3010008E3010008E3010008E301000860
:1000F000E3010008E3010008E3010008E301000850
:10010000E3010008E3010008E3010008E30100083F
:10011000E3010008E3010008E3010008E30100082F
:10012000E3010008E3010008E3010008E30100081F
:1001300000F002F800F03AF80AA090E8000C8244BF
:100140008344AAF10107DA4501D100F02FF8AFF29C
:10015000090EBAE80F0013F0010F18BFFB1A43F0A5
:10016000010318476804000088040000103A24BF07
:1001700078C878C1FAD8520724BF30C830C144BF0C
:1001800004680C607047000000230024002500264E
:10019000103A28BF78C1FBD8520728BF30C148BFEA
:1001A0000B6070471FB51FBD10B510BD00F02DF8D6
:1001B0001146FFF7F7FF00F06FF900F04BF803B4BA
:1001C000FFF7F2FF03BC00F027F9000008480047E2
:1001D000FEE7FEE7FEE7FEE7FEE7FEE7FEE7FEE7F7
:1001E000FEE7FEE703480449024A044B704700005B
:1001F00031010008380100203805002038010020B6
:1002000070477047704770477047754600F02CF88C
:10021000AE4605006946534620F00700854618B0F3
:1002200020B5FFF7DFFFBDE820404FF000064FF09C
:1002300000074FF000084FF0000B21F00701AC461B
:10024000ACE8C009ACE8C009ACE8C009ACE8C0093A
:100250008D46704710B50446AFF300802046BDE8D8
:100260001040FFF7ACBF000000487047D4000020EA
:1002700000B5002015490861C860142048610020BD
:100280008861C8610846006840F0010008600846BF
:1002900040680F4908400D494860084600680D490C
:1002A00008400A4908600846006820F48020086079
:1002B0000846406820F4FE00486000208860002165
:1002C0004FF0006000F008F800BD00000010024090
:1002D0000000FFF8FFFFF6FE024A0A400243024B0D
:1002E0001A60704780FFFF1F08ED00E030B504463C
:1002F0000025FFF7BDFF1F48006840F480301D490E
:10030000086000BF1B480068400C0028FAD04FF47A
:10031000806018494860A01EC4B20846406840EAA0
:10032000844048600846406840F480304860124885
:10033000006840F03200104908600E48006840F044
:1003400080700C49086000BF0A480068400E002811
:10035000FAD00848406840F002000649486005E0CD
:1003600004484068C0F3870505F00305022DF7D166
:1003700030BD000000100240002002404FF08040DD
:10038000008A4FF08040008A20F001004FF0804149
:10039000088270471D49098801F0200111B31B49EB
:1003A000091D0988C8B21A49098801F40041C9B970
:1003B0001749098801F4804161B10A2803D000215E
:1003C000134A118020E01249098841F40041104A83
:1003D000118019E00D2806D10D49098841F48041AA
:1003E0000B4A118010E00A490988C1F30D01094A3E
:1003F000505407490988491C054A1180114609884B
:10040000C72901DD0021118070470000003801403C
:10041000080000200C00002000BF70474FF0E021D2
:10042000096921F004014FF0E0221161C21700EBCD
:100430005272C2F3C702074B1A701946097801EBD2
:100440004102C2EBC1114FF6FF7202EAC101024A3A
:1004500011807047000000200200002001460D4A74
:1004600012884A434FF0E0235A6100229A61012228
:100470001A6100BF4FF0E022106900F001021AB1CA
:1004800000F48032002AF5D000224FF0E0231A61F8
:100490009A617047020000200920FFF727FF4820DB
:1004A000FFF7BCFF4648806940F00400444988617A
:1004B00044480068002043490860084600684249F3
:1004C0000843404908603F480C30006840F0FF0096
:1004D0003C490C31086071E03A480830006800F08F
:1004E000100040B937480C30006820F00100354951
:1004F0000C31086007E033480C30006840F0010020
:1005000030490C3108602F480830006800F02000A6
:1005100040B92C480C30006840F0020029490C31E9
:10052000086007E027480C30006820F002002549E9
:100530000C31086023480830006800F04000A8B97A
:100540000A20FFF78BFF1F480C30006880F0040082
:100550001C490C31086000BF1A480830006800F0E0
:1005600040000028F8D00A20FFF778FF154808302F
:10057000006800F0800008BB0A20FFF76FFF1148F9
:100580000C30006820F008000E490C3108604FF470
:10059000FA60FFF763FF0B480C30006840F008007A
:1005A00008490C31086000BF06480830006800F0B8
:1005B00080000028F8D00A20FFF750FF8CE70000E9
:1005C000001002400008014011118888EC05000865
:1005D000000000200C0000006C010008F805000875
:1005E0000C0000202C05000088010008000000001D
:0805F000000000000000000003
:0400000508000131BD
:00000001FF
