:020000040800F2
:1000000070040020D5010008D9010008DB010008B8
:10001000DD010008DF010008E10100080000000028
:10002000000000000000000000000000E3010008E4
:10003000E501000800000000E7010008E9010008F0
:10004000EB010008EB010008EB010008EB010008E0
:10005000EB010008EB010008EB010008EB010008D0
:10006000EB010008EB010008EB010008EB010008C0
:10007000EB010008EB010008EB010008EB010008B0
:10008000EB010008EB010008EB010008EB010008A0
:10009000EB010008EB010008EB010008AD040008CB
:1000A000EB010008EB010008EB010008EB01000880
:1000B000C9060008EB010008EB010008EB0100088D
:1000C000EB010008EB010008EB010008EB01000860
:1000D000EB010008D9060008EB010008EB0100085D
:1000E000EB010008EB010008EB010008EB01000840
:1000F000EB010008EB010008EB010008EB01000830
:10010000EB010008EB010008EB010008EB0100081F
:10011000EB010008EB010008EB010008EB0100080F
:10012000EB010008EB010008EB010008EB010008FF
:1001300000F002F800F03FF80AA090E8000C8244BA
:100140008344AAF10107DA4501D100F034F8AFF297
:10015000090EBAE80F0013F0010F18BFFB1A43F0A5
:1001600001031847B80B0000D80B0000103A24BF59
:1001700078C878C1FAD8520724BF30C830C144BF0C
:1001800004680C607047000000230024002500264E
:10019000103A28BF78C1FBD8520728BF30C148BFEA
:1001A0000B607047642900F07180002070471FB514
:1001B0001FBD10B510BD00F031F91146FFF7F7FF74
:1001C00000F0FAFA00F04FF903B4FFF7F2FF03BCB6
:1001D00000F0E4FA08480047FEE7FEE7FEE7FEE726
:1001E000FEE7FEE7FEE7FEE7FEE7FEE70348044919
:1001F000024A044B704700003101000870000020E3
:100200007004002070000020704700000FB4044903
:1002100010B503AA029800F0D3F810BC5DF814FBE7
:10022000040000202DE9F0410E4604460020206223
:100230002046E168884730B3252805D0D4E901215C
:100240009047206A401CF2E7E16820460027884773
:10025000050018D0A5F14100192802D820354FF427
:1002600000673246294620462760FFF79BFF40B1D2
:10027000012804D0F61D26F007060836D8E7361DFB
:10028000D6E72846DAE7206ABDE8F0812DE9F0419B
:100290000646002410687529314616A510D0AFF324
:1002A0000080002802DA404213A507E031688A077F
:1002B00001D512A502E0490704D511A5012401E0EA
:1002C000AFF3008000210A2206F1240709E0B0FB09
:1002D000F2FCB0FBF2F302FB1C00303078541846FD
:1002E000491C0028F3D123462A463046BDE8F04198
:1002F00000F00CB8000000002D0000002B000000F2
:100300002000000070477047704770472DE9F047A4
:100310000D4699469246044600F124080168880675
:1003200004D5E06921F01001216000E00120A8421D
:1003300001DD471B00E00027A1697A1902EB0900E3
:10034000081AA0612078C00602D42046AFF30080CE
:10035000002608E0D4E901211AF806009047206A37
:10036000401C761C20624E45F4DB2078C0060AD57E
:100370002046AFF3008006E0D4E901213020904709
:10038000206A401C2062381EA7F10107F4DC07E058
:10039000D4E9012118F805009047206A401C20622A
:1003A000281EA5F10105F3DC2046AFF3008020787C
:1003B000000602D50220BDE8F0870120FBE700001F
:1003C000074B70B50D467B4400F011F804462846F3
:1003D00000F020F810B14FF0FF3070BD204670BD26
:1003E000D703000001694A1C02610878704700B514
:1003F0008FB0CDE901310021059105497944CDE95E
:10040000031011466846FFF70DFF0FB000BD000056
:10041000E5FFFFFF007B00F080007047754600F0AD
:100420002BF8AE4605006946534620F00700854686
:1004300018B020B5FFF7DAFEBDE820404FF0000607
:100440004FF000074FF000084FF0000B21F00701BC
:10045000AC46ACE8C009ACE8C009ACE8C009ACE8FF
:10046000C0098D46704710B50446AFF300802046A2
:10047000BDE81040FFF7A8BE004870470C00002000
:100480004FF0E0210A6922F004020A610649C0081F
:1004900000EB40020870C2EBC0104FF6FF7202EA98
:1004A000C0004880704700000000002030B5194AA5
:1004B0001068850618480388194601F101010CB23D
:1004C0001649A3F101031BB20D6810D50968AD06EA
:1004D0004FEA416102D5002904DB01E0002901DA7D
:1004E000048000E00380106840F020000FE00968FD
:1004F0006D064FEA816102D5002904DB01E0002985
:1005000001DA038000E00480106840F040001060D1
:1005100030BD00001404014008000020080801401C
:100520001748816941F0050181611648016821F091
:100530007F610160016841F00861016011480C3081
:10054000016841F0600101600F48C16821F47F61DA
:10055000C1600E48016841F0600101600B4808303D
:10056000016841F060010160001D016841F0600117
:100570000160022317220321084600F02FB8000073
:10058000001002400008014000000140000401404A
:100590000F4800210161C160142242618161C16183
:1005A000026842F00102026042680A4B1A4042604F
:1005B0000268094B1A400260026822F4802202603D
:1005C000426822F4FE0242608160C00300F03EB83F
:1005D000001002400000FFF8FFFFF6FEF0B50546F0
:1005E00014460F461E46184600F01EF8C6F10400D9
:1005F00085400F20F040384028436109890001F10F
:10060000E021D1F8002104F01F050123AB401A437B
:10061000C1F8002104F1E02494F8001441EA00102C
:1006200084F80004F0BD0000072181430A02054957
:1006300008684FF6FF031840034B18431043086047
:10064000704700000CED00E00000FA05024A11407E
:10065000014302480160704780FFFF1F08ED00E082
:1006600010B50446FFF794FF1549086840F4803040
:1006700008600868400CFCD04FF480604860A41EFD
:100680004A68E0B242EA80404860486840F48030FE
:1006900048600C48026842F032020260086840F08C
:1006A000807008600868400EFCD0486840F0020086
:1006B00048604868C0F381000228FAD110BD0000EC
:1006C00000100240002002404FF08040018A018A61
:1006D00021F001010182704703480088800602D59D
:1006E0000148001D008870470038014070B504467D
:1006F000080100F0C5F905462448604300F0C0F940
:10070000294600F0DBF8054600F09AF984B220464D
:1007100000F0B6F9294600F011FA042100F0BFFA02
:1007200000F08EF94FF6FF7101EA04110A1818481B
:10073000816941F004018161816941F480418161F5
:1007400014490B6823F47F630B600B6843F40B635D
:100750000B60C16841F48041C160C16821F48041EF
:10076000C1600D480280001D018842F20C02114355
:100770000180018841F020010180BDE87040022322
:10078000252203210846FFF729BF000040420F0041
:100790000010024004080140083801407047000082
:1007A00004490A885206FCD5024AC1B2121D1180C2
:1007B00070470000003801400920FFF751FF482032
:1007C000FFF75EFE4FF4E1314820FFF78FFFFFF7A0
:1007D000A7FE034C03A0B4F90010FFF717FDF9E7DB
:1007E0000800002025640D0A0000000090EA010FB7
:1007F00048BF81F0004100F1B281421A3CBF801A2B
:1008000089184FEAD0524FF07F4C1CEA410FA2EBFF
:10081000D15318BF9CEA026F00F03B804FF0004CB0
:100820004CEA00204CEA012121FA03FC10EB0C0CED
:100830001ED202F1FF325FEA1C2040EBC25038BFEB
:1008400070471CF07F0F4FEA400C18BFBCF17F4F80
:1008500038BF7047C3F12003994008BF20F0010062
:10086000BCF17F4F38BF7047A0F1C04000F061B9C4
:100870004FEA3C00000A40EBC25028BF1CF0FF0FBB
:100880004FEA400CE6D018BFBCF17F4F38BF70472D
:10089000EAE79CEA026F05D010EA5C0F08BF00F09F
:1008A0000040704710B500F0FEF800BF64FBBE3E8C
:1008B000014800F0C2B900BF0000C07F4FF47F0CB8
:1008C0001CEAD0121EBF1CEAD11392EA0C0F93EA65
:1008D0000C0F00F0858090EA010F48BF42F480724F
:1008E00040F4000C41F400002CF07F4120F07F40E8
:1008F00000B58142A2EB03020FF2081CACEB504E94
:10090000C0F100009EF800E04FEA4E0E00FB0EFC26
:1009100038BF49004FEA2C1C02F5FA020CFB0EF31B
:100920004FEACE1E4FEA112C4FEAC1210EEB635E57
:1009300042EB22420EFB0CFC4FEA1C5300FB03115E
:100940004FEA112C4FEA01310EFB0CFC4FEADC4C54
:1009500000FB0C11C14228BF09184CEB03335DF8B2
:1009600004EB10EB410143EBC250B2F57C0F38BFF2
:10097000704729D512F0F00F1CBF00F1C04000F005
:1009800000407047008182838485868788898B8CAC
:100990008D8E8F919293959697999A9C9D9FA0A2E8
:1009A000A3A5A7A8AAACAEB0B2B3B5B7B9BCBEC038
:1009B000C2C5C7C9CCCED1D4D7D9DCDFE2E6E9ECD9
:1009C000F0F3F7FAFE0000004FEA400C0CF1807CD7
:1009D000BCF17E4F28BF7047B0F1C04000F0A9B80D
:1009E00090EA010F0CEAD11348BF42F480726245CD
:1009F00038BF634507D213F47F0F16D080EA010099
:100A000000F00040704710B500F04DF8097EFC3E44
:100A100000F005B880EA010000F00040704780EA6D
:100A2000010000F0004000F084B812F47F0F04BF12
:100A30000248704780EA010000F07BB80000C07FE8
:100A4000C10DD1F19E0206DB4FEA002343F00043C3
:100A500023FA02F07047004207D54FEA4001B1F196
:100A6000FE4F02D24FF00000704710B500F01BF8A7
:100A700049922480002070476FEA200070470000F0
:100A8000B0FA80F310FA03F2C3F19D030AD0D9053E
:100A900001EB1220530638BF704700F1010008BF78
:100AA00020F0010070470EF1020E2EF0030E5EF8EA
:100AB000044B244204D44FEA4102B2F17F4F11D8D3
:100AC0004FEA4003B3F17F4F0CD80ED14FEAD07CF0
:100AD000B2F17F4F0CEB4C0C0CF1020C08BF4CEB4D
:100AE000D17C04E04FF0080C01E04FEAD17C0CEB24
:100AF0004C0324FA03F404F00704B4F1040C06D206
:100B00000EEB840CBDE810404CF0010C6047DFE8B0
:100B10000CF0070802024FF00040A0F5800010BD65
:100B20000846420018BFD2F1807288BF00F0004032
:100B300010BDFF2141EAD050C005704780F0004051
:100B400090EA010F7FF559AE81F0004100F007B83F
:100B500090EA010F48BF81F000413FF54EAE421AC6
:100B600004D882F00042A0EB020011444FEAD052B8
:100B70004FF07F4C1CEA410FA2EBD15318BF9CEA07
:100B8000026F4AD04FF0004C4CEA00204CEA0121A1
:100B900021FA03FCB0EB0C0C0FD412F0FE0F36D090
:100BA0005FEA4C001DD5001240EBC25038BF7047C1
:100BB0001CF03F0F18BF70470BE0A2F101025FEA83
:100BC0001C2040EBC25038BF70471CF07F0F18BF8D
:100BD0007047C3F12003994014BF401E20F001006C
:100BE000704780084FEA122308BF7047B0FA80FCB4
:100BF000A2EB0C02CCF1280C60FA0CF093EA122F55
:100C000004BF00EBC25070474FEAC3707047130A2D
:100C10005FEADC1008BF7047F6E79CEA026F04D079
:100C200010EA5C0F08BF0020704710B5FFF73BFFCC
:100C300040DFF63E81F0004070470CF00F03092BB7
:100C400008BF082000F051800A2B0BD0082B18BFDA
:100C5000704708BF1CF0400F0AD04FF000004FF063
:100C6000000170471CF0400F18BF4FF00040704764
:100C70001CF0100F08D020F0704300F07F4242EAD1
:100C8000D3014FEA4370704700F0604021F07F428B
:100C900042EA000201F07F4040EA727070474FF074
:100CA000FF0212EAD0521CBF92F0FF038B42C2BF78
:100CB000D14200EBC1507047002A0AD0002B0BD064
:100CC000002900F00040A4BF40F0FE4040F40000C6
:100CD000704700F00040704743024FF00B0C18BF04
:100CE0004CF0806C7FF4E4AD70471CF4801F11D091
:100CF0001CF4E02F03D06FEACC31490070474FF06D
:100D00004050EFF3008222F0704242EA000282F388
:100D1000008870474FF00000704700003C0D00084D
:100D2000000000200C0000006C010008480D0008C5
:100D30000C0000206404000088010008000000008E
:080D40000000000000000000AB
:0400000508000131BD
:00000001FF
