:020000040800F2
:1000000030050020CD010008D1010008D30100080F
:10001000D5010008D7010008D90100080000000040
:10002000000000000000000000000000DB010008EC
:10003000DD01000800000000DF010008E101000808
:10004000E3010008E3010008E3010008E301000800
:10005000E3010008E3010008E3010008E3010008F0
:10006000E3010008E3010008E3010008E3010008E0
:10007000E3010008E3010008E3010008E3010008D0
:10008000E3010008E3010008E3010008E3010008C0
:10009000E3010008E3010008E3010008E3010008B0
:1000A000E3010008E3010008E3010008E3010008A0
:1000B0005D040008E3010008E3010008E301000813
:1000C000E3010008E3010008E3010008E301000880
:1000D000E3010008D5040008E3010008E30100087B
:1000E000E3010008E3010008E3010008E301000860
:1000F000E3010008E3010008E3010008E301000850
:10010000E3010008E3010008E3010008E30100083F
:10011000E3010008E3010008E3010008E30100082F
:10012000E3010008E3010008E3010008E30100081F
:1001300000F002F800F03AF80AA090E8000C8244BF
:100140008344AAF10107DA4501D100F02FF8AFF29C
:10015000090EBAE80F0013F0010F18BFFB1A43F0A5
:10016000010318472C0400004C040000103A24BF7F
:1001700078C878C1FAD8520724BF30C830C144BF0C
:1001800004680C607047000000230024002500264E
:10019000103A28BF78C1FBD8520728BF30C148BFEA
:1001A0000B6070471FB51FBD10B510BD00F02DF8D6
:1001B0001146FFF7F7FF00F0D1F900F04BF803B458
:1001C000FFF7F2FF03BC00F0C7F900000848004742
:1001D000FEE7FEE7FEE7FEE7FEE7FEE7FEE7FEE7F7
:1001E000FEE7FEE703480449024A044B704700005B
:1001F00031010008300100203005002030010020CE
:1002000070477047704770477047754600F02CF88C
:10021000AE4605006946534620F00700854618B0F3
:1002200020B5FFF7DFFFBDE820404FF000064FF09C
:1002300000074FF000084FF0000B21F00701AC461B
:10024000ACE8C009ACE8C009ACE8C009ACE8C0093A
:100250008D46704710B50446AFF300802046BDE8D8
:100260001040FFF7ACBF000000487047D0000020EE
:1002700000B5002015490861C860142048610020BD
:100280008861C8610846006840F0010008600846BF
:1002900040680F4908400D494860084600680D490C
:1002A00008400A4908600846006820F48020086079
:1002B0000846406820F4FE00486000208860002165
:1002C0004FF0006000F078F800BD00000010024020
:1002D0000000FFF8FFFFF6FE0D48806940F00400C3
:1002E0000B4988610B4800686FF30F0009490860EB
:1002F0000846006841F211110843064908600548A4
:100300000C30006840F00F0002490C310860704763
:1003100000100240000801402DE9F04107468846E0
:1003200014461D46284600F033F8C5F1040007FACC
:1003300000F60F20284100EA0800064306F00F06E9
:10034000E21704EBD2625211920002F1E022D2F8DD
:1003500000212146E31704EBD3635B11A4EB431C9C
:10036000012303FA0CF31A432046E31704EBD3638B
:100370005B119B0003F1E023C3F800210348005DFB
:1003800040EA061001490855BDE8F08100E400E0AC
:100390000146072323EA01021202054B18684FF6B3
:1003A000FF031840034B18431043014B186070477C
:1003B0000CED00E00000FA05024A0A400243024B3D
:1003C0001A60704780FFFF1F08ED00E030B504465B
:1003D0000025FFF74DFF1F48006840F480301D499D
:1003E000086000BF1B480068400C0028FAD04FF49A
:1003F000806018494860A01EC4B20846406840EAC0
:10040000844048600846406840F4803048601248A4
:10041000006840F03200104908600E48006840F063
:1004200080700C49086000BF0A480068400E002830
:10043000FAD00848406840F002000649486005E0EC
:1004400004484068C0F3870505F00305022DF7D185
:1004500030BD000000100240002002404FF08040FC
:10046000008A00F0010038B10848006808B901208E
:1004700000E00020054908604FF08040008A20F02D
:1004800001004FF080410882704700008001214246
:1004900010B50F48C06940F001000D49C86142F233
:1004A0001070810688854FF4E150088540068089E8
:1004B00040F0010088810846008840F00100088073
:1004C00000231C2219461846FFF726FF10BD000026
:1004D000001002401D49098801F0200111B31B4999
:1004E000091D0988C8B21A49098801F40041C9B92F
:1004F0001749098801F4804161B10A2803D000211D
:10050000134A118020E01249098841F40041104A41
:10051000118019E00D2806D10D49098841F4804168
:100520000B4A118010E00A490988C1F30D01094AFC
:10053000505407490988491C054A11801146098809
:10054000C72901DD002111807047000000380140FB
:10055000040000200800002000BF70470920FFF7BA
:1005600035FFFFF795FFFFF7B7FE0020064908604B
:100570000649C1F884010449083108600349C1F8FB
:100580008C0100BFFEE700008001214200002142F3
:10059000B005000800000020080000006C01000801
:1005A000B8050008080000202805000088010008A0
:0805B000000000000000000043
:0400000508000131BD
:00000001FF
