:020000040800F2
:1000000038050020ED010008F1010008F3010008A7
:10001000F5010008F7010008F901000800000000E0
:10002000000000000000000000000000FB010008CC
:10003000FD01000800000000FF01000801020008A7
:10004000030200080302000803020008030200087C
:10005000030200080302000803020008030200086C
:10006000030200080302000803020008030200085C
:10007000030200080302000803020008030200084C
:100080000302000803020008BD1200080302000872
:10009000030200080302000803020008030200082C
:1000A000030200080302000803020008030200081C
:1000B000611600080302000803020008030200089A
:1000C00003020008030200080302000803020008FC
:1000D0000302000879160008030200080302000862
:1000E00003020008030200080302000803020008DC
:1000F00003020008030200080302000803020008CC
:1001000003020008030200080302000803020008BB
:1001100003020008030200080302000803020008AB
:10012000030200080302000803020008030200089B
:1001300000F002F800F04AF80AA090E8000C8244AF
:100140008344AAF10107DA4501D100F03FF8AFF28C
:10015000090EBAE80F0013F0010F18BFFB1A43F0A5
:1001600001031847CC220000EC220000103A24BF03
:1001700078C878C1FAD8520724BF30C830C144BF0C
:1001800004680C607047000000230024002500264E
:10019000103A28BF78C1FBD8520728BF30C148BFEA
:1001A0000B607047662902F0F680642900F07A80BF
:1001B000002070471FB500F02FFB04000020002135
:1001C00001F064FBE0601FBD10B510BD00F040FC05
:1001D0001146FFF7EFFF01F0D5FA00F05EFC03B423
:1001E000FFF7F2FF03BC01F09DFA0000084800474A
:1001F000FEE7FEE7FEE7FEE7FEE7FEE7FEE7FEE7D7
:10020000FEE7FEE703480449024A044B704700003A
:100210003101000838010020380500203801002095
:10022000704700000FB4044910B503AA029800F00B
:10023000E1FA10BC5DF814FB040000202DE9F04148
:100240000E460446002020622046E168884730B30D
:10025000252805D0D4E901219047206A401CF2E707
:10026000E168204600278847050018D0A5F1410025
:10027000192802D820354FF4006732462946204617
:100280002760FFF78FFF40B1012804D0F61D26F04C
:1002900007060836D8E7361DD6E72846DAE7206A8B
:1002A000BDE8F0812DE9F04106460024106875296B
:1002B000314616A510D0AFF30080002802DA404284
:1002C00013A507E031688A0701D512A502E04907A6
:1002D00004D511A5012401E0AFF3008000210A221A
:1002E00006F1240709E0B0FBF2FCB0FBF2F302FBDD
:1002F0001C00303078541846491C0028F3D123469E
:100300002A463046BDE8F04100F00CB8000000007D
:100310002D0000002B0000002000000070477047F7
:10032000704770472DE9F0470D46994692460446BE
:1003300000F124080168880604D5E06921F0100165
:10034000216000E00120A84201DD471B00E00027FA
:10035000A1697A1902EB0900081AA0612078C00689
:1003600002D42046AFF30080002608E0D4E9012142
:100370001AF806009047206A401C761C20624E4501
:10038000F4DB2078C0060AD52046AFF3008006E0F3
:10039000D4E9012130209047206A401C2062381E99
:1003A000A7F10107F4DC07E0D4E9012118F8050002
:1003B0009047206A401C2062281EA5F10105F3DC4D
:1003C0002046AFF300802078000602D50220BDE869
:1003D000F0870120FBE770472DE9FF4F0C461E46D2
:1003E0004FF0FF378BB0D2E90001DDF860800A9052
:1003F0008A46C1F30A5505B93D46002108464FF02B
:100400000000BAF1000F00F4400005DA00EB8000B4
:100410004FF4400101EA50004FEA9059B9F1010F41
:1004200000DDB9460A9850EA4A000ED044F6105052
:10043000A5F2FF3545432F14B8F1000F1ED07542C9
:10044000291E1EDDC9F100021CE0B8F1010F4FF0BA
:10045000000001D0302103E0F24305E02154401CAC
:10046000B042FBDB30460022002121540B99C1F839
:100470000880C1E900200FB0BDE8F08FBD1B6D1CE6
:10048000DEE74A4600DA694206A800F067FA06ABE2
:1004900093E8070003AB83E8070050460A9900F091
:1004A00045FB8DE80700A0F500501F380090039829
:1004B000002D0ADD42F21F014A460844002303A929
:1004C0000390684600F0AEFD09E0A0F500504A46F2
:1004D0001F38002303A90390684600F0B8FD8DE89B
:1004E00007000004000C03D04FF0FF30410800E08B
:1004F0001046B8F1000F03D00022009215461EE00E
:10050000751E05D400F08CF9303262556D1EF9D598
:10051000B3460122084302D000227F1C04E0207869
:10052000302801D100227F1E002A099784D01DE0C7
:10053000112D07DA00F074F9303262556D1C50EA63
:100540000102F5D1084302D00098C8B10EE00021A5
:10055000681E05E0235C625C63542254401E491C03
:100560008142F7DBAB46A81B401E0990002004F82F
:100570000B000B98099AC0F80880C0E9002B7AE7B5
:1005800011264FF0000857E72DE9F04F8846044642
:10059000D21D22F0070191B0D1E90001CDE90A0195
:1005A00001F0ACF802460B98C00F01D02D2007E0F7
:1005B0002068810701D52B2002E0202101EAC0003C
:1005C000032A099001D0072A05DB0346414620464D
:1005D00000F084F90BE12078800601D5E06900E0A5
:1005E0000620B8F1650F814606D0B8F1660F18D025
:1005F000B8F1670F70D131E00020B9F1110F009010
:1006000001DB112301E009F101030AAA01A90CA8E9
:10061000FFF7E2FEDDE90C70002609F101058346D3
:1006200047E001204B4600904FF000470AAA01A97D
:100630000CA8FFF7D1FEDDE90DB00C995D46002650
:1006400010B909F101000D18B9EB050003D4C0F190
:10065000FF3609F10105A5EB09002BE0B9F1010F07
:1006600001DA4FF001090020B9F1110F009048465E
:1006700001DD112300E003460AAA01A90CA8FFF737
:10068000ABFEDDE90C704D4600268346207800075E
:100690000AD4AB4500DA5D4601A8012D04DD4119FD
:1006A00011F8011C302907D04F4502DA17F1040F69
:1006B00004DA012082460FE06D1EEEE7002F02DC17
:1006C000ED1B3E4403E0781CA84200DD7D1CB81BF6
:1006D00000F1010A4FF000472078000703D4AA4533
:1006E00001DB4FF0FF3A0021B7F1004F0DF1430855
:1006F0008DF8431024D002202B23002F01DA7F42F3
:100700002D230A21021EA0F1010000DC5FB197FB3E
:10071000F1FC97FBF1F201FB1C7C17460CF1300C4D
:1007200008F801CDEEE7A8F1010003702188090562
:1007300001D5452100E06521A0F1010800F8011C68
:1007400009980FA9A1EB0807FF1D00B1012041196D
:1007500001EBEA70A1693844081A401EA0612078B4
:10076000C00602D42046AFF30080099828B1D4E92E
:1007700001219047206A401C20622078C00622D5C3
:100780002046AFF300801EE0002E04DBB34502DDFF
:1007900001A8805D00E03020D4E901219047206A63
:1007A000401C2062761CAAF101005FEA000A0AD10F
:1007B00000F032F8C0680168405CD4E9012190473C
:1007C000206A401C2062281EA5F10105DCDC07E040
:1007D000D4E9012118F8010B9047206A401C2062DF
:1007E000381EA7F10107F3DC2046AFF30080032099
:1007F00011B041E6074B70B50D467B4400F05BF845
:100800000446284600F01CF910B14FF0FF3070BDCF
:10081000204670BD6B0F000000487047F4000020B8
:1008200030B5B0F10A024FEA900E71F100034EEAC2
:10083000817EB0EB0E0061EB91014FEA101E4EEA93
:10084000017E10EB0E0041EB11114FEA102E4EEA23
:10085000016E10EB0E0041EB11214FEA104E4EEAF3
:10086000014E10EB0E0041EB1141401841F1000127
:100870004FEAD00040EA41704FEAD10110EB800509
:100880004FEA810444EA907444EB01046D1944EB8F
:100890000404521BA3414FF0000348BF0A3200D5A5
:1008A00030BD401C41F1000130BD000001694A1C0F
:1008B00002610878704700B58FB0CDE901310021A1
:1008C000059105497944CDE9031011466846FFF7C3
:1008D000B5FC0FB000BD0000E5FFFFFF2DE9F041C2
:1008E0001F46044603260168072A01F4006004DB62
:1008F00008B116A505E016A503E008B115A500E0AE
:1009000015A521F010002060A069C01EA0610FB1E4
:10091000401EA0612046AFF300804FB1D4E9012111
:1009200038469047206A401C2062C01C206206E0C6
:10093000206AFAE7D4E9012115F8010B9047761EE9
:10094000F8D22046AFF30080BDE8F0814E414E0062
:100950006E616E00494E4600696E66002DE9F047F3
:10096000814616468AB0354878440DC88DE80D009A
:1009700032487844801C03AC0DC884E80D0041F671
:100980009B300844372190FBF1F290FBF1F5A5F183
:10099000800501FB12041B3C02D56442012000E0EB
:1009A0000020DFF898A080460027FA44AAF1BE0A8A
:1009B0000EE0E0070AD03246684607EB4701012304
:1009C0000AEB810100F043FB8DE8070064107F1CF7
:1009D000002CEED1194F7F44AE3F19E0E80715D047
:1009E00007EB04100DF1180A90E80E008AE80E00DB
:1009F000C068F04201D1981908903246012306A937
:100A000003A800F024FB03AB83E807006D10641C0F
:100A1000002DE3D14FF0010332466946B8F1000FD3
:100A200003A802D000F0FEFA01E000F010FBC9E9D3
:100A30000001C9F808200AB0BDE8F087AC1A000030
:100A4000007B00F08000704700487047D400002011
:100A50007546FFF7F9FFAE4605006946534620F09C
:100A60000700854618B020B5FFF7CCFBBDE8204055
:100A70004FF000064FF000074FF000084FF0000B5A
:100A800021F00701AC46ACE8C009ACE8C009ACE80D
:100A9000C009ACE8C0098D46704710B50446AFF3F5
:100AA00000802046BDE81040FFF799BB4FF0013CA5
:100AB00050F8042B51F8043B9A4221D1A2EB0C03CD
:100AC000934313EACC1317D150F8042B51F8043B8D
:100AD0009A4215D1A2EB0C03934313EACC130BD12A
:100AE00050F8042B51F8043B9A4209D1A2EB0C03B5
:100AF000934313EACC13DBD04FF00000704700BFE4
:100B0000D01A01BAB1FA81F101F0180122FA01F00C
:100B1000CB40C1F12001DBB2C0B2C01A2CFA01F304
:100B2000D11A914311EAC311E6D170475FEA400C34
:100B300008BF91F0000F4FEA8C234FEAC12243EA2D
:100B400051514FEA1C5018BF00F5F0404FEA3000F9
:100B500018BF41F000415FEA6C5C00F02980BCF1F5
:100B6000FF3F08BF40F080407047130C06BF1204DF
:100B70004FF0100C4FF0000C130E04BF12020CF1DA
:100B8000080C130F04BF12010CF1040C930F04BFE7
:100B900092000CF1020CD30F04BF52000CF1010CB7
:100BA00011464FF00002A0F11F00A0EB0C007047AF
:100BB00011F0004F08BF704731F000413FF4D5AF4E
:100BC0000B0C06BF09044FF0100C4FF0000C0B0E7D
:100BD00004BF09020CF1080C0B0F04BF09010CF152
:100BE000040C8B0F04BF89000CF1020CCB0F04BF67
:100BF00049000CF1010CCCF12003A0EB0C0022FA0F
:100C000003F302FA0CF241EA030100F1010070471C
:100C100020F07F4C80EA030023F07F47ACEB070312
:100C200003F57C5300F0004003F1FF032DE98049F8
:100C30004FEA154B09B44FEA144325EA0B4E24EA58
:100C400003480FF2042606EB132749083E785FEAB3
:100C5000320203FB0667C7F5000707FB06F64FEAFB
:100C600054374FEAD64606F1020607FB066CCCF174
:100C7000005C4FEA1C472CEA074C07FB06F40CFB10
:100C800006F504EB15464FEA961634BF00204FF0E8
:100C900000404FEAD13706FB07FC4FEA1C4C0CFB27
:100CA0000BF7D21B03FB0CF761EB07010CFB0EF7F4
:100CB000B0EB074072EB17420CFB08F734BFA2EB16
:100CC0000742B2EB074261EB17414FEA0C444FEA8F
:100CD000910706FB07FC4FEA1C4C0CFB0BF7B0EB33
:100CE000C74072EB573203FB0CF734BFA2EBC7428D
:100CF000B2EBC74261EB57310CFB0EF7B0EBC7000C
:100D000072EB57720CFB08F734BFA2EBC702B2EBD1
:100D1000C70261EB5771039F4FEA816141EA92116B
:100D200004EBCC044FEAD1374FEA826206FB07FCA2
:100D300042EA90124FEA80604FEA1C4C0CFB0BF722
:100D4000D21B03FB0CF761EB07010CFB0EF7B0EBBA
:100D5000074072EB17420CFB08F734BFA2EB0742C7
:100D6000B2EB074261EB17414FEA8C554FEA91070E
:100D700004EB9C2406FB07FC4FEA1C4C0CFB0BF716
:100D8000B0EBC74072EB573203FB0CF734BFA2EB5A
:100D9000C742B2EBC74261EB57310CFB0EF7B0EB29
:100DA000C70072EB57720CFB08F734BFA2EBC70207
:100DB000B2EBC70261EB577115EB4C254FEA81612D
:100DC00041EA92114FEA82624FEAD13742EA901229
:100DD00006FB07FC44F100044FEA80604FEA1C4C1C
:100DE0000CFB0BF7D21B03FB0CF761EB07010CFBB1
:100DF0000EF7B0EB074072EB17420CFB08F734BF5D
:100E0000A2EB0742B2EB074261EB174115EB1C1551
:100E10004FEA813141EA92414FEA823242EA9042FE
:100E20004FEA80304FEA0C7644F1000448EA03436D
:100E30004EEA0B484FF0000EB2EB080C71EB0307C3
:100E400024BF624639464EEB0E0E4FF0000B0018E1
:100E5000524149414BEB0B0BB2EB080C71EB030712
:100E60007BF1000B24BF624639464EEB0E0E4FF06D
:100E7000000B0018524149414BEB0B0BB2EB080C35
:100E800071EB03077BF1000B24BF624639464EEB42
:100E90000E0E51EA020718BF46F0010616EB0E7659
:100EA00055F1000254F1000103D5BDE88901BDE808
:100EB0000088BDE88901BDE80048B619524141EB00
:100EC0000101A3F10103704780807F7E7D7C7B7AE6
:100ED0007978777676757473727171706F6E6E6DE6
:100EE0006C6C6B6A6A69686867666665646463638C
:100EF00062616160605F5F5E5E5D5D5C5C5B5B5A12
:100F00005A5959585857575656555555545453537E
:100F100052525251515050504F4F4F4E4E4D4D4DD9
:100F20004C4C4C4B4B4B4A4A4A4949494848484724
:100F30004747474646464545454444444443434362
:100F40004342424242414141002B9C4630D477000B
:100F50002BD01CB54FEA370703B44FF010004FF009
:100F60001001BAF1000F06D0BCF1000FDCBF40F059
:100F7000080040F008014FF000000FBCBDE8104031
:100F80000BF1010BBBF1010F08BF5FEA170722BF8E
:100F900012F1010211F101014FF0004143F1000390
:100FA00000F0004043EA00007047F9D35708D0E74B
:100FB00046EA064613F1400F4FEA16461FDD13F1CD
:100FC000200FDFBF16430A46002120335B42BED00C
:100FD000C3F1200746EA064602FA07F74FEA16462B
:100FE00046EA0706C3F1200722FA03F201FA07F7DF
:100FF00021FA03F14FF0000342EA0702A7E746EAAD
:10100000020646EA06464FEA164646EA0106BCBF15
:1010100046EA0646360C4FF000034FF000024FF050
:10102000000194E72DE9804C9A46934670B491E80C
:10103000380007C831EA400C48BF34EA430C03D5F6
:10104000FFF7E6FDFFF780FFF0BCBDE8008C2DE95F
:10105000804C9A46934670B491E8380007C810F067
:10106000804F08BF13F0804F03D100F005F8FFF761
:101070006BFFF0BCBDE8008C20F07F4780EA0300E6
:1010800023F07F4C07EB0C03A3F57C5300F00040EA
:10109000A3F1FE0392F0000F00F0B38095F0000F73
:1010A00000F077802DE901494FEA11404FEA1446DC
:1010B00021EA004800FB06FC24EA064708FB06F686
:1010C00007FB08F800FB07F718EB06484CEB164C3B
:1010D0004FEA124B18EB07484FEA15464CEB174006
:1010E00022EA0B4E0BFB06FC25EA06470EFB06F632
:1010F00007FB0EFE0BFB07F71EEB064E4CEB164CE8
:101100004FF000061EEB074E4CEB174B18EB0B088D
:1011100040F1000018EB0E0B58EB000840F1000006
:101120008F1A4FF000013CBFC943661B14BFB5EBDB
:10113000040C00213CBFC943F61B4FEA17444EEA9A
:101140008E0E27EA04454FEA1C4704FB07622CEA8F
:10115000074C05FB07F70CFB05F604FB0CFC16EB34
:10116000074642EB174216EB0C4642EB1C421BEBC8
:10117000060658EB0202414146EA9E0601D5BDE84B
:101180000189B619524141EB0101A3F10103BDE808
:1011900001894FEA14454FEA114724EA054621EA3E
:1011A000074C05FB07F406FB07F70CFB06F105FBF4
:1011B0000CFC11EB074144EB17444FEA124711EBCB
:1011C0000C4144EB1C4422EA074C05FB07F206FBEA
:1011D00007F70CFB06F605FB0CFC16EB074642EB8B
:1011E000174216EB0C4642EB1C456A1854F10001FD
:1011F00048BF7047B619524141EB0101A3F1010309
:10120000704795F0000F37D04FEA11424FEA14476C
:1012100021EA024624EA074C02FB07F106FB07F726
:101220000CFB06F402FB0CFC14EB074441EB1741EA
:101230004FEA154714EB0C4441EB1C4125EA074CDF
:1012400002FB07F506FB07F70CFB06F602FB0CFC9E
:1012500016EB074645EB174516EB0C4645EB1C42D3
:10126000121951F1000148BF7047B619524141EBC4
:101270000101A3F1010370474FEA14454FEA1147FA
:1012800024EA054621EA074C05FB07F106FB07F7B0
:101290000CFB06F24FF0000605FB0CFC12EB0742BC
:1012A00041EB174112EB0C4251EB1C4148BF704718
:1012B000921841EB0101A3F1010370472DE9F84FAA
:1012C0001C48006800F0040000282AD01948016872
:1012D00019A0FEF7A7FF17483C30D0F800A05146F0
:1012E00017A0FEF79FFF504600F0DEFE009000F0D2
:1012F0006BFD80464FF06632144B00F067FC0646EB
:101300000022134B00F00AFB044600F0D5FA834696
:10131000584600F059FD044622460B460DA0FEF744
:1013200081FF0448006820F00E0002490860BDE813
:10133000F88F00000024014053523A256400000059
:1013400020CDA8B5C035A3BA2564000066660A4062
:1013500000FEAF4020B5E7D1B9D6B5A3BA25660ADD
:101360000000000010B54148406820F440403F496B
:1013700048600846406840F400404860084680697C
:1013800040F4007088610846806940F0040088617C
:101390003748006820F47000354908603348C06859
:1013A00040F400703149C8600846C06820F40070FD
:1013B000C8603048006840F080002E490860084648
:1013C000006820F480700860081D006840F4004048
:1013D000091D08600846006820F40060086008469F
:1013E000006820F00200086022480C30006840F4D9
:1013F000603020490C3108601E483430006820F409
:1014000040101C49343108600846006840F4203020
:1014100008601848001D006840F001001549091DCA
:1014200008600846006840F00800086000BF1148E6
:10143000001D006800F008000028F8D10D48001DCC
:10144000006840F004000B49091D086000BF09480E
:10145000001D006800F004000028F8D100231222CB
:101460001946184600F03CF810BD0000001002407C
:10147000000801400424014000B50020154908611E
:10148000C8601420486100208861C861084600686F
:1014900040F001000860084640680F4908400D49C7
:1014A0004860084600680D4908400A490860084637
:1014B000006820F4802008600846406820F4FE00A0
:1014C00048600020886000214FF0006000F058F86C
:1014D00000BD0000001002400000FFF8FFFFF6FE14
:1014E0002DE9F0410746884614461D46284600F07F
:1014F00033F8C5F1040007FA00F60F20284100EA8E
:101500000800064306F00F06E21704EBD262521100
:10151000920002F1E022D2F800212146E31704EB09
:10152000D3635B11A4EB431C012303FA0CF31A43AE
:101530002046E31704EBD3635B119B0003F1E02328
:10154000C3F800210348005D40EA06100149085530
:10155000BDE8F08100E400E00146072323EA010230
:101560001202054B18684FF6FF031840034B18434F
:101570001043014B186070470CED00E00000FA05C5
:10158000024A0A400243024B1A60704780FFFF1F65
:1015900008ED00E030B504460025FFF76DFF1F4859
:1015A000006840F480301D49086000BF1B48006897
:1015B000400C0028FAD04FF4806018494860A01E03
:1015C000C4B20846406840EA844048600846406823
:1015D00040F4803048601248006840F03200104902
:1015E00008600E48006840F080700C49086000BF39
:1015F0000A480068400E0028FAD00848406840F0C9
:1016000002000649486005E004484068C0F38705C9
:1016100005F00305022DF7D130BD00000010024097
:10162000002002400D4AD26942F001020B4BDA6100
:101630009A0410859185128B42F070029B041A83E4
:101640001A46128C42F001021A844FF47A629A868A
:101650005206128842F001021A80704700100240C0
:101660004FF08040008A4FF08040008A20F0010057
:101670004FF08041088270471D49098801F0200120
:1016800011B31B49091D0988C8B21A49098801F418
:101690000041C9B91749098801F4804161B10A289C
:1016A00003D00021134A118020E01249098841F437
:1016B0000041104A118019E00D2806D10D49098812
:1016C00041F480410B4A118010E00A490988C1F3B6
:1016D0000D01094A505407490988491C054A1180DF
:1016E00011460988C72901DD0021118070470000DB
:1016F00000380140080000200C000020490050EA9A
:10170000C12018BF04204A0D18BF40F0010040F26C
:10171000FF72B2EB515F08BF40F00200012808BF22
:101720000520704700BF70474FF0E021096921F0A4
:1017300004014FF0E0221161C21700EB5272C2F3B4
:10174000C702074B1A701946097801EB4102C2EB38
:10175000C1114FF6FF7202EAC101024A11807047BF
:10176000000000200200002000BF054A128802F09D
:101770004002002AF9D0C2B2014B1B1D1A807047EB
:10178000003801400920FFF705FF4820FFF7CCFF94
:101790004FF41651482000F00BF8FFF7E3FD41F23B
:1017A000883141F61F40FFF73DFF00BFFEE7000014
:1017B0002DE9F05F05460E46300100F08DFC8146B4
:1017C0002E4905FB01F000F087FC8246494600F0F7
:1017D00089FB0746384600F047FC84B2204600F0FB
:1017E0007BFC8346394600F057FD82464FF083412B
:1017F00000F086FC814600F037FC80464FF6FF7013
:1018000000EA041404EB080084B21D48806940F02B
:1018100004001B4988610846806940F48040886163
:101820001848006820F47F60164908600846006880
:1018300040F40B6008601248C06840F480401049D2
:10184000C8600846C06820F48040C8600E48048024
:10185000001D008842F20C0108430B49091D088055
:101860000846008840F0200008800223252203213A
:101870000846FFF735FEBDE8F09F000040420F002C
:1018800000100240040801400838014010B500294A
:101890000AD00878002807D005487844FFF706F9F1
:1018A000002801D0002010BD0248784410BD00007F
:1018B000B60B0000AE0B000021F00042A2F1605216
:1018C000B2F5801F01F0004328BFD2F17F6C0BD925
:1018D0005FEA001C43EAC20242EB507018BF704737
:1018E00028BF20F001007047B2F5801FBCBF18462A
:1018F00070474FEA410C1CF5001F02D2084600F069
:10190000C6BC70B500F00CFA00000089FFF7F6BF06
:101910004FF00040A0F58000704700002DE9C04165
:1019200030B4DFF8A0C23CEA111418BF3CEA13142B
:1019300000F0EC8081EA03051CEA111444EAD57436
:1019400018BF1CEA131500F0C780A4EB05044FF084
:10195000004545EAC12145EAC32341EA505143EA23
:10196000525304F17F74994204F500344FEAC020C9
:101970004FEAC22208BF904200F09C804FEA1365F4
:101980000FF24016765D4FEA134506FB05F7C7F1E7
:10199000807706FB07F74FEAD737A7FB0368764245
:1019A000C8F58038A7FB06CE38BFA8F1010807FBB1
:1019B00008E64FF0000EA6FB028CE6FB03CEDCF13E
:1019C000000CCEF1004E38BFAEF1010EA6FB0C5854
:1019D0004FF000074FF00005E6FB0E87A1FB08C69D
:1019E000A0FB07CE16EB0E0645F10005E1FB0765EF
:1019F00015F1E04E7EBFA4F580345FEA46066D41E6
:101A000016F1800745F100054FEA17274FEA0666F1
:101A100047EA0567A6F1DE46B6F1805F4FEA152575
:101A20001FD9384624F0010C05EBC471BCF1FE6FE0
:101A300001EB0C1102D8F0BCBDE8008124425CBF70
:101A400001F5801E9EEAC47F02D4F0BCBDE800818F
:101A5000244238D4F0BCA1F1C041BDE8004100F0FF
:101A6000ADB94FEAD22242EA43524FEAD323A7FB51
:101A700002864FEAD02040EA415007FB03661EEA87
:101A80000E0F4FEAD12105FB026658BFA6EB0056A8
:101A9000B6EB00564FEA520E4EEAC37E18EB0E0E1E
:101AA00056EB530EBDD518EB02085E417F1C55F175
:101AB0000005B6E74FF480154FF000074FF0000621
:101AC0004FF00008ADE7F0BC4FF0000001F1C0415D
:101AD00001F00041BDE8008111EA0C1F0CEA13156A
:101AE00000D00CE013EA0C1F00F025804FF000003E
:101AF000F0BC81EA030101F00041BDE80081F0BCC7
:101B0000BDE8004181EA030100F058B9F0BCBDE82E
:101B1000004170B500F004F9097EFC3E00F007B802
:101B200081EA03014FF0000001F00041704781EAB3
:101B3000030100F043B9F0BCBDE800414FF00000E4
:101B400021497047FFFDFBF9F7F5F4F2F0EEEDEBFC
:101B5000E9E8E6E4E3E1E0DEDDDBDAD8D7D5D4D3AB
:101B6000D1D0CFCDCCCBCAC8C7C6C5C4C2C1C0BFF7
:101B7000BEBDBCBBBAB9B8B7B6B5B4B3B2B1B0AFFD
:101B8000AEADACABAAA9A8A8A7A6A5A4A3A3A2A1E1
:101B9000A09F9F9E9D9C9C9B9A999998979796959C
:101BA00095949393929191908F8F8E8E8D8C8C8B38
:101BB0008B8A8989888887878685858484838382C0
:101BC000828181800000FF070000F87FDFF848C1B4
:101BD00070B51CEA111E1EBF1CEA13159EEA0C0FFD
:101BE00095EA0C0F00F06F8081EA030423EA4C139E
:101BF0004EEAD47E21EA4C1141F4801143F4801363
:101C0000AE44A1FB024CA0FB0365AEF17F7E36190A
:101C100055EB0C05A1FB034C4CF10003A0FB021C8F
:101C200016EB0C06654153F10003094218BF46F05C
:101C3000010613F4007F0BD14FEA03314FEA053060
:101C4000340341EA155140EA16506FF003020AE0EE
:101C50004FEAC3214FEAC520F40241EA555140EA58
:101C600056506FF0020202EB2E4201EB025585EA5C
:101C7000CE710AD05FEA440C18BF24F0004450F142
:101C8000000041F1000120EAD47040F2FE7C624580
:101C900000D270BDA84214BF4FF080444FF04044C2
:101CA000002E08BF0024BEF1806FA8BFA1F1C04183
:101CB000BDE8704080F282804FF0000001F1C04129
:101CC00001F0004170479EEA0C0F0CEA131518BF93
:101CD00095EA0C0F06D04FF0000081EA030E0EF0DB
:101CE000004170BD00F01CF88900013E00F007B80B
:101CF00000F009B84FEA430C5FEA5C5C08D081EA67
:101D0000030100F05BB84FEA410C5FEA5C5CF6D17E
:101D10004FF00000014970470000FF070000F87F06
:101D20000EF1020E2EF0030E5EF8046B364205D45F
:101D3000012A43EB030515F5001F12D8012841EBDA
:101D4000010C1CF5001F0CD80ED14FEAD17C15F503
:101D5000001F0CEB4C0C0CF1020C08BF4CEBD37CBD
:101D600004E04FF0080C01E04FEAD37C0CEB4C058B
:101D700026FA05F606F00706B6F1040C06D20EEBBD
:101D8000860CBDE870404CF0010C6047DFE80CF0B9
:101D9000090B02024FF000414FF00000A1F50021B5
:101DA00070BD19461046012851EB010418BFD4F547
:101DB000001484BF002001F0004170BD0808A0F5A8
:101DC00000114FEA3101704743004FEAD30C4FEA4C
:101DD0003C0C43401FBF40070CF1605113F0FE4F15
:101DE00070471CF0006F03D100200CF000417047D9
:101DF0000CF0004343EA507010B540EACC0000F00C
:101E000000FA00BF000000924FEA0001FFF7D6BFC2
:101E10004FF000414FF00000A1F500217047000095
:101E200090EA010F48BF81F0004100F14682421A5A
:101E30003CBF801A89184FEAD0524FF07F4C1CEA01
:101E4000410FA2EBD15318BF9CEA026F00F03B8018
:101E50004FF0004C4CEA00204CEA012121FA03FC2F
:101E600010EB0C0C1ED202F1FF325FEA1C2040EB9B
:101E7000C25038BF70471CF07F0F4FEA400C18BFAC
:101E8000BCF17F4F38BF7047C3F12003994008BFB2
:101E900020F00100BCF17F4F38BF7047A0F1C04077
:101EA00000F0F5B94FEA3C00000A40EBC25028BFF1
:101EB0001CF0FF0F4FEA400CE6D018BFBCF17F4F7B
:101EC00038BF7047EAE79CEA026F05D010EA5C0F62
:101ED00008BF00F00040704710B500F092F900BF55
:101EE00064FBBE3E4FF47F0C1CEAD0121EBF1CEAFE
:101EF000D11392EA0C0F93EA0C0F00F0858090EA60
:101F0000010F48BF42F4807240F4000C41F400001D
:101F10002CF07F4120F07F4000B58142A2EB03020C
:101F20000FF2081CACEB504EC0F100009EF800E030
:101F30004FEA4E0E00FB0EFC38BF49004FEA2C1C46
:101F400002F5FA020CFB0EF34FEACE1E4FEA112CFB
:101F50004FEAC1210EEB635E42EB22420EFB0CFC0A
:101F60004FEA1C5300FB03114FEA112C4FEA0131D9
:101F70000EFB0CFC4FEADC4C00FB0C11C14228BFED
:101F800009184CEB03335DF804EB10EB410143EB14
:101F9000C250B2F57C0F38BF704729D512F0F00F50
:101FA0001CBF00F1C04000F00040704700818283F8
:101FB0008485868788898B8C8D8E8F919293959658
:101FC00097999A9C9D9FA0A2A3A5A7A8AAACAEB0E2
:101FD000B2B3B5B7B9BCBEC0C2C5C7C9CCCED1D4E7
:101FE000D7D9DCDFE2E6E9ECF0F3F7FAFE00000017
:101FF0004FEA400C0CF1807CBCF17E4F28BF70474B
:10200000B0F1C04000F043B990EA010F0CEAD113DF
:1020100048BF42F48072624538BF634507D213F46B
:102020007F0F16D080EA010000F00040704710B525
:1020300000F0E7F8097EFC3E00F005B880EA0100F8
:1020400000F00040704780EA010000F0004000F01E
:102050001EB912F47F0F04BF0248704780EA0100E6
:1020600000F015B90000C07FC10DD1F19E0206DB62
:102070004FEA002343F0004323FA02F07047004286
:1020800007D54FEA4001B1F1FE4F02D24FF00000F8
:10209000704710B500F0B5F84992248000207047D1
:1020A0006FEA20007047000010F0004148BF404236
:1020B000B0FA80F310FA03F2C3F19D030BD051EA9A
:1020C000C35101EB1220530638BF704700F10100E5
:1020D00008BF20F001007047B0FA80F310FA03F255
:1020E000C3F19D030AD0D90501EB1220530638BF76
:1020F000704700F1010008BF20F0010070470000A8
:102100004FF47F0C1CEAD0121EBF1CEAD11392EAD6
:102110000C0F93EA0C0F00F0478090EA010F48BFC4
:1021200042F480724FF0004C4CEA00204CEA01214E
:1021300002EB0302A0FB0113A2F50002002918BF65
:1021400043F001035B0028BF4FEA330342EB224216
:102150005FEA132C4CEBC2502EBFBCEB436FB2F5C1
:102160007C0F70474FEA036CBCF1004F08BF20F0B2
:102170000100B2F57C0F38BF70470BD582F0FF022B
:1021800012F5803FC8BF704700F1C040D8BF00F0D3
:102190000040704700F5000C5FEA4C0C48BF7047E8
:1021A000B0F1C04000F073B890EA010F0CEAD1130F
:1021B00048BF42F48072624538BF634504D280EA6A
:1021C000010000F00040704710B500F01AF800BFA1
:1021D0008900013E00F007B800F009B85FEA410C41
:1021E0005FEA1C6C08D080EA010000F050B85FEA9A
:1021F000400C5FEA1C6CF6D14FF00040A0F5800067
:1022000070470EF1020E2EF0030E5EF8044B2442CE
:1022100004D44FEA4102B2F17F4F11D84FEA400394
:10222000B3F17F4F0CD80ED14FEAD07CB2F17F4F83
:102230000CEB4C0C0CF1020C08BF4CEBD17C04E015
:102240004FF0080C01E04FEAD17C0CEB4C0324FA70
:1022500003F404F00704B4F1040C06D20EEB840C72
:10226000BDE810404CF0010C6047DFE80CF00708B7
:1022700002024FF00040A0F5800010BD0846420069
:1022800018BFD2F1807288BF00F0004010BDFF215E
:1022900041EAD050C005704780F0004090EA010F3D
:1022A0007FF5C5AD81F0004100F007B890EA010F5D
:1022B00048BF81F000413FF5BAAD421A04D882F020
:1022C0000042A0EB020011444FEAD0524FF07F4C85
:1022D0001CEA410FA2EBD15318BF9CEA026F4AD00F
:1022E0004FF0004C4CEA00204CEA012121FA03FC9B
:1022F000B0EB0C0C0FD412F0FE0F36D05FEA4C009E
:102300001DD5001240EBC25038BF70471CF03F0F84
:1023100018BF70470BE0A2F101025FEA1C2040EBFE
:10232000C25038BF70471CF07F0F18BF7047C3F111
:102330002003994014BF401E20F001007047800820
:102340004FEA122308BF7047B0FA80FCA2EB0C02E0
:10235000CCF1280C60FA0CF093EA122F04BF00EBCA
:10236000C25070474FEAC3707047130A5FEADC102F
:1023700008BF7047F6E79CEA026F04D010EA5C0FD2
:1023800008BF0020704710B5FFF73BFF40DFF63E67
:1023900081F000407047FEF7F7B8000002400000EF
:1023A000000000A00000000005400000000000C880
:1023B000000000000C4000000000409C00000000F5
:1023C000194000000020BCBE0000000034400000A6
:1023D000BFC91B8E00000004B5400000504BCFD099
:1023E0006607E2CF010000006C4100003E8251AA66
:1023F000DFEEA73401000000D9420000DCB5A0E206
:102400003A301F97FFFFFFFFB4450000FD25A0C82D
:10241000E9A3C14FFFFFFFFFFF3F00000000008066
:1024200000000000FF3F00000000008000000000EE
:102430006C240008000000200C0000006C01000863
:10244000782400080C0000202C05000088010008FA
:102450001C00000043000000F8FFFFFF0C0000001C
:102460000E0000000F0000002E0000000000000021
:08247000000000000000000064
:0400000508000131BD
:00000001FF
