:020000040800F2
:100000000006002045010008991E00089B1B0008FF
:10001000951E000879020008792B000800000000F6
:10002000000000000000000000000000D9230008CC
:1000300089040008000000000B220008B126000817
:100040005F0100085F0100085F0100085F01000810
:100050005F0100085F0100085F0100085F01000800
:100060005F0100085F0100085F0100085F010008F0
:100070005F0100085F0100085F0100085F010008E0
:100080005F0100085F0100085F0100085F010008D0
:100090005F0100085F0100085F010008E504000837
:1000A0005F0100085F0100085F0100085F010008B0
:1000B0005F0100085F0100085F0100085F010008A0
:1000C0005F0100085F0100085F0100085F01000890
:1000D0005F0100085F0100085F0100085F01000880
:1000E000C10400085F0100085F0100085F0100080B
:1000F0005F0100085F0100085F0100085F01000860
:100100005F0100085F0100085F0100085F0100084F
:100110005F0100085F0100085F0100085F0100083F
:100120005F0100085F0100085F0100085F0100082F
:10013000DFF80CD000F06CF800480047A130000850
:10014000000600200648804706480047FEE7FEE715
:10015000FEE7FEE7FEE7FEE7FEE7FEE7FEE7FEE777
:100160001F27000831010008202A04DB203A21FA69
:1001700002F00021704721FA02F3D040C2F12002C0
:100180009140084319467047D2B201E000F8012BB4
:10019000491EFBD270470022F6E710B513460A4607
:1001A00004461946FFF7F0FF204610BD2DE9F05F29
:1001B0000546002092469B468846064681464024D6
:1001C0001BE02846414647462246FFF7CDFF5346EF
:1001D0005A46C01A914110D311461846224600F0E3
:1001E00029F82D1A67EB01084F462246012000210D
:1001F00000F020F817EB00094E41201EA4F1010485
:10020000DFDC484631462A464346BDE8F09F000001
:10021000064C074D06E0E06840F0010394E8070053
:1002200098471034AC42F6D3FFF786FF88310008B8
:10023000A8310008202A04DB203A00FA02F100204D
:1002400070479140C2F1200320FA03F31943904014
:100250007047000010B504462CB10122D1020548B8
:1002600000F036FB05E000224FF40061014800F089
:100270002FFB10BD000C014000BFFEE72DE9F0414F
:100280000746884615460421052000F0EFF80021B6
:10029000012002F073FC80210A2002F09EF8002465
:1002A00005E0395D092002F069FC601CC4B24445D8
:1002B000F7DB0321012002F061FCFF2400BF0520D1
:1002C00001F0D6FF0646601EC4B21CB106F0040061
:1002D0000028F4D0222001F0CBFF2870212001F06B
:1002E000C7FF6870BDE8F08118B502461E48037864
:1002F00083B3012131E00320C0EB81001A4C205C64
:100300008DF800000220C0EB8100205C8DF8010018
:100310000120C0EB8100205C8DF802000020C0EBC2
:100320008100205C8DF803009DF800001478A04245
:1003300011D19DF801005478A0420CD19DF8020023
:100340009478A04207D19DF80300D478A04202D14E
:10035000084618BD05E0481CC1B29942CBDD00201B
:10036000F7E70020F5E700001C00002030B502464A
:100370001B4803780AB19A4201DD002030BD1146C6
:1003800026E0012000EB8100154C205C0324C4EB27
:100390008104134D2855022000EB81002C46205C7F
:1003A0000224C4EB81042855032000EB81002C4675
:1003B000205C0124C4EB81042855042000EB81005B
:1003C0002C46205C0024C4EB81042855481CC1B293
:1003D0009942D6DB581EC3B2014803701046CDE7E0
:1003E0001C00002030B50546134804783F2C01D18D
:1003F000002030BD2846FFF777FF08B10020F8E75E
:10040000601CC4B20C48047028780321C1EB84013D
:10041000094A505468780221C1EB84015054A878ED
:100420000121C1EB84015054E8780021C1EB840123
:1004300050542046DDE700001C00002070B5002568
:10044000002408E00421084800F03AFA08B1681CCA
:10045000C5B2601CC4B2322CF4DB192D01DB0120C3
:1004600070BD0020FCE700000008014070B50546A3
:100470000C460026284601F0FBFE064626EA04014B
:10048000284602F07BFB70BD704710B5044620463D
:1004900000F052F810BD000010B519200749096896
:1004A00088630120FFF7D6FE4FF4FA6000F044F8AD
:1004B000052002490968886310BD0000740100200E
:1004C00010B50A2000F038F8FFF7B8FF10B9002087
:1004D000FFF7C0FE0A2000F02FF84FF4806000F014
:1004E00041F810BD10B50A2000F026F80E4800783B
:1004F000401C0D49087008460078032801DD0020E3
:10050000087002F06FF800BF4FF48071074800F0E8
:10051000D7F90028F8D00A2000F00EF84FF48070C8
:1005200000F020F810BD0000040000200008014089
:1005300072B600BFFEE7000070B5044600F0CEF9C9
:1005400006462546681C10B104480078054400BFE3
:1005500000F0C4F9801BA842FAD370BD100000203F
:100560007047000010B5044604480068204020B1E0
:10057000024804602046FFF7F3FF10BD1404014059
:100580002DE9F847024600239C467BE14FF0010825
:1005900008FA03F4D1F8008008EA0400A0427DD1F3
:1005A000DFF8F4A2D1F80480A8EB0A09D0453AD0CC
:1005B00014DCB8F1030F50D009DCB8F1000F31D0D2
:1005C000B8F1010F1CD0B8F1020F49D120E0B8F109
:1005D000110F18D0B8F1120F42D11EE0B9F5881FE3
:1005E00025D006DCB9F5803F20D0B9F5801F37D182
:1005F0001AE0B9F5001F18D0B9F5041F30D117E083
:10060000D1F80CC02DE0D1F80C8008F1040C28E0E2
:10061000D1F80C8008F1080C23E0D1F80C8008F127
:100620000C0C1EE000BF00BF00BF00BF00BF00BF3A
:10063000D1F80880B8F1000F02D14FF0040C0BE0A4
:10064000D1F80880B8F1010F03D14FF0080C146104
:1006500002E04FF0080C546103E04FF0000C00E0A2
:1006600000BF00BFFF2801D8904601E002F1040856
:100670004646FF2802D84FEA830803E0A3F10808A2
:100680004FEA88084746D6F800804FF00F0909FA6C
:1006900007F928EA09080CFA07F900E07AE048EAC5
:1006A0000908C6F80080D1F8048008F08058B8F135
:1006B000805F6FD100BFDFF8E481D8F8188048F080
:1006C0000108DFF8D891C9F81880C846D8F8188012
:1006D00008F00108CDF8008000BF00BF4FEAB9382C
:1006E0004FEA930958F829504FEA83784FEA18796E
:1006F0004FF00F0808FA09F825EA0805DFF8A0818D
:10070000424502D14FF0000824E0DFF898814245CD
:1007100002D14FF001081DE0DFF88C81424502D183
:100720004FF0020816E0DFF88481424502D14FF015
:1007300003080FE0DFF87881424502D14FF004084A
:1007400008E0DFF87081424502D14FF0050801E072
:100750004FF006084FEA83794FEA197908FA09F849
:1007600048EA0505DFF850814FEA930948F8295017
:10077000D1F8048008F48038B8F5803F0BD1DFF859
:100780003C81D8F8008048EA0008DFF83091C9F8C9
:1007900000800AE075E0DFF82481D8F8008028EABC
:1007A0000008DFF81891C9F80080D1F8048008F437
:1007B0000038B8F5003F0ED1DFF8008108F10408D9
:1007C000D8F8008048EA0008DFF8F09009F1040941
:1007D000C9F800800DE0DFF8E48008F10408D8F8DB
:1007E000008028EA0008DFF8D49009F10409C9F86C
:1007F0000080D1F8048008F48018B8F5801F0ED16D
:10080000DFF8B88008F10808D8F8008048EA000846
:10081000DFF8A89009F10809C9F800800DE0DFF8B9
:100820009C8008F10808D8F8008028EA0008DFF862
:100830008C9009F10809C9F80080D1F8048008F407
:100840000018B8F5001F0ED1DFF8708008F10C0811
:10085000D8F8008048EA0008DFF8609009F10C0938
:10086000C9F800800DE0DFF8548008F10C08D8F8D2
:10087000008028EA0008DFF8449009F10C09C9F863
:1008800000805B1CD1F8008028FA03F8B8F1000F53
:100890007FF47CAEBDE8F887000011100010024024
:1008A00000080140000C014000100140001401400C
:1008B00000180140001C01400800014000040140F4
:1008C000024693680B400BB1012000E00020704706
:1008D0000AB1016101E00B0403617047014800683F
:1008E00070470000080000200348006803490978A9
:1008F00008440149086070470800002010000020EB
:1009000010B50848006840F0100006490860032050
:1009100000F09EF8002000F007F800F02BF800200F
:1009200010BD00000020024070B504460E4800785B
:100930004FF47A71B1FBF0F00C490968B1FBF0F5A6
:10094000284600F0B8FD08B1012070BD102C07D278
:1009500000222146501E00F03DF80548046001E0E9
:100960000120F2E70020F0E7100000201400002032
:100970000C00002008B500BF0D48806940F0010060
:100980000B4988610846806900F00100009000BFB3
:1009900000BF00BF0846C06940F08050C8610846EB
:1009A000C06900F08050009000BF00BF08BD00008B
:1009B0000010024001460846002809DB00F01F0332
:1009C00001229A4043099B0003F1E023C3F8002170
:1009D00000BF70472DE9F05F80460D4616460027A0
:1009E00002F0F4F8074639462A46334601F007007C
:1009F000C0F1070ABAF1040F02D94FF0040A01E06E
:100A0000C0F1070AD14600F1040ABAF1070F02D279
:100A10004FF0000A01E0A0F1030AD4464FF0010AAA
:100A20000AFA09FAAAF1010A0AEA020A0AFA0CFA0F
:100A30004FF0010B0BFA0CFBABF1010B0BEA030BB4
:100A40004AEA0B042146404602F0C8F8BDE8F09F90
:100A500000BF00F00702064B19684FF6FF0319406C
:100A6000044B0B4343EA0221014B196000BF70475E
:100A70000CED00E00000FA0570B504460D460CB917
:100A8000012070BD5A48006800F00700A8420ED24D
:100A90005748006820F00700284355490860084679
:100AA000006800F00700A84201D00120E9E72078A3
:100AB00000F0020002281DD1207800F00400042874
:100AC00005D14C48406840F4E0604A4948602078CD
:100AD00000F00800082805D14648406840F46050FE
:100AE000444948604348406820F0F000A16808434A
:100AF00040494860207800F0010078B36068012820
:100B000006D13C48006800F4003090B90120B8E7F5
:100B10006068022806D13748006800F0007040B9CC
:100B20000120AEE73348006800F0020008B9012058
:100B3000A7E73048406820F00300616808432D496A
:100B40004860FFF7CBFE064609E0FFF7C7FE801BB3
:100B500041F28831884202D9032092E707E0254814
:100B6000406800F00C006168B0EB810FEDD12048C7
:100B7000006800F00700A8420ED91D48006820F068
:100B8000070028431A4908600846006800F007007B
:100B9000A84201D0012074E7207800F00400042866
:100BA00007D11448406820F4E060E1680843114927
:100BB0004860207800F00800082808D10D484068F7
:100BC00020F46050216940EAC1000A49486000F001
:100BD0003FF808494968C1F30311074A515CC8400E
:100BE0000649086006480068FFF79EFE002048E7B7
:100BF0000020024000100240703100081400002064
:100C00000C0000200148006870470000140000201C
:100C100000B5FFF7F7FF04494968C1F30221034A11
:100C2000515CC84000BD0000001002408031000847
:100C300000B5FFF7E7FF04494968C1F3C221034A41
:100C4000515CC84000BD0000001002408031000827
:100C5000F0B585B00FF26C0C9CE8E01001A8A0E89C
:100C6000E0101CA52D68009500210022002300241F
:100C70000020194D696801F00C05F5B1042D02D072
:100C8000082D19D101E0154819E001ADC1F38346E3
:100C9000AC5D01F4803555B10F4D6D68C5F340452D
:100CA0001DF805200D4D6543B5FBF2F302E00C4D38
:100CB00004FB05F3184602E000BF084800BF00BF70
:100CC00005B0F0BD02030405060708090A0B0C0D68
:100CD0000E0F1010010200000010024000127A00F6
:100CE00000093D00F8B504460CB90120F8BD207894
:100CF00000F00100002878D0F848406800F00C00AF
:100D000004280CD0F548406800F00C00082811D1E8
:100D1000F248406800F48030B0F5803F0AD1EF48D7
:100D2000006800F4003000285FD0606800285CD1C3
:100D30000120DBE700BF6068B0F5803F06D1E748DF
:100D4000006840F48030E549086028E0606858B9E0
:100D5000E248006820F48030E049086008460068F6
:100D600020F4802008601AE06068B0F5A02F0BD155
:100D7000DA48006840F48020D849086008460068D6
:100D800040F4803008600AE0D448006820F48030E5
:100D9000D24908600846006820F48020086000BF3F
:100DA000606888B1FFF79AFD054606E0FFF796FDFB
:100DB000401B642801D9032098E7C848006800F464
:100DC00000300028F2D010E0FFF788FD054606E06D
:100DD000FFF784FD401B642801D9032086E7BF4844
:100DE000006800F400300028F2D1207800F0020002
:100DF000022857D1B948406800F00C0050B1B748FC
:100E0000406800F00C00082818D1B448406800F48D
:100E1000803098B9B148006800F0020020B1206924
:100E2000012801D0012061E7AC48006820F0F800FB
:100E3000616940EAC100A949086033E02069E8B16E
:100E40000120A7490860FFF749FD054606E0FFF7C6
:100E500045FD401B022801D9032047E79F48006851
:100E600000F002000028F2D09C48006820F0F80052
:100E7000616940EAC1009949086013E0002098497F
:100E80000860FFF72BFD054606E0FFF727FD401B36
:100E9000022801D9032029E79048006800F00200E9
:100EA0000028F2D1207800F0080008282DD1A06990
:100EB000B8B101208B490860FFF710FD054606E038
:100EC000FFF70CFD401B022801D903200EE78348E1
:100ED000406A00F002000028F2D0012001F0B4F9CD
:100EE00013E000207F490860FFF7F8FC054606E0A4
:100EF000FFF7F4FC401B022801D90320F6E67748EF
:100F0000406A00F002000028F2D1207800F00400CE
:100F1000042873D100277148C06900F0805070B96F
:100F200000BF6E48C06940F080506C49C8610846F7
:100F3000C06900F08050009000BF00BF01276A48E0
:100F4000006800F48070B0B96748006840F48070B1
:100F500065490860FFF7C2FC054606E0FFF7BEFCE6
:100F6000401B642801D90320C0E65F48006800F4F4
:100F700080700028F2D000BFE068012806D15748F1
:100F8000006A40F001005549086227E0E06858B95E
:100F90005248006A20F00100504908620846006A81
:100FA00020F00400086219E0E06805280BD14B48E6
:100FB000006A40F00400494908620846006A40F0AF
:100FC000010008620AE04548006A20F00100434938
:100FD00008620846006A20F00400086200BFE0686A
:100FE000A0B1FFF77BFC054609E0FFF777FC401B4B
:100FF00041F28831884202D9032077E622E037485F
:10100000006A00F002000028EFD012E0FFF766FC53
:10101000054608E0FFF762FC401B41F28831884238
:1010200001D9032062E62D48006A00F00200002882
:10103000F0D1012F05D12948C06920F080502749FF
:10104000C86100BFE069C8B32448406800F00C00E4
:10105000082860D0E069022848D1002020490866AD
:10106000FFF73CFC054606E0FFF738FC401B022872
:1010700001D903203AE61948006800F00070002802
:10108000F2D1206AB0F5803F07D11448406820F4BF
:101090000030A168084311494860D4E908010843B9
:1010A0000E49496821F4741108430C494860012035
:1010B0000B490866FFF712FC054607E03DE0FFF725
:1010C0000DFC401B022801D903200FE603480068ED
:1010D00000F000700028F2D02FE000000010024065
:1010E0000000424280044242007000400020144947
:1010F0000866FFF7F3FB054606E0FFF7EFFB401B32
:10110000022801D90320F1E50E48006800F00070C4
:101110000028F2D111E0E069012800D1E6E5094894
:10112000466806F48031206A814204D106F47011C9
:10113000606A814201D00120D8E50020D6E5000098
:10114000000042420010024010B504460CB90120D4
:1011500010BD606A38B96068B0F5827F00D105E0E3
:101160000021E16102E00021216161610021A162B1
:1011700094F8510028B9002084F85000204600F06F
:1011800043F8022084F851002068006820F04000F5
:1011900021680860A08800F48270218901F404416C
:1011A0000843A18901F400610843217C01F0020198
:1011B0000843217D01F001010843218B01F40071F6
:1011C0000843217F01F0380108432021095D01F027
:1011D00080010843218D01F4005108432168086013
:1011E0000421A06901EA1040216848602068C069B4
:1011F00020F400602168C86100206065012084F847
:1012000051000020A4E7000010B586B0044600207D
:1012100002900390049005901949206888422DD1CE
:1012200000BF1848806940F480501649886108461C
:10123000806900F48050019000BF00BF00BF0846E5
:10124000806940F0040088610846806900F004006D
:10125000019000BF00BFA020029002200390032055
:10126000059002A90848FFF78BF940200290002062
:101270000390049002A90448FFF782F906B010BD5C
:101280000030014000100240000801402DE9FF5FDE
:101290000446884691461D460E9E0120029000207D
:1012A000019000BF94F85000012803D1022004B03F
:1012B000BDE8F09F012084F8500000BFFFF70EFB4F
:1012C000074694F851B060680390AA46BBF1010F3D
:1012D0000BD00398B0F5827F04D1A06810B9BBF1A0
:1012E000040F02D002200190DBE0B8F1000F03D020
:1012F000B9F1000F00D015B901200190D1E094F8A8
:101300005100042802D0052084F8510000206065B7
:10131000C4F83890E587A587C4F83080E586A586AF
:10132000206460642068006800F04000402805D018
:101330002068006840F0400021680860E068B0F56F
:10134000006F4AD1606810B1BAF1010F09D1206B6A
:1013500000882168C860206B801C2063E08E401EDE
:10136000E08633E02068806800F00200022810D197
:10137000E08E70B1029801280BD1206B00882168A3
:10138000C860206B801C2063E08E401EE086002039
:1013900002902068806800F0010068B1E08F58B1C9
:1013A0002068C068A16B0880A06B801CA063E08FE0
:1013B000401EE08701200290FFF790FAC01BB04268
:1013C00004D3701C10B1032001906AE0E08E002865
:1013D000C8D1E08F0028C5D14AE0606810B1BAF1E9
:1013E000010F09D1206B007821680873206B401C25
:1013F0002063E08E401EE08634E02068806800F0C4
:101400000200022810D1E08E70B1029801280BD1A1
:10141000206B007821680873206B401C2063E08EED
:10142000401EE086002002902068806800F00100E5
:1014300068B1E08F58B12068C068A16B0870A06BDC
:10144000401CA063E08F401EE08701200290FFF760
:1014500045FAC01BB04201D3701C00B916B9032075
:1014600001901EE0E08E0028C7D1E08F0028C4D193
:101470003A463146204600F017FF20B10120019086
:10148000202060650DE0A06850B900BF00200090EA
:101490002068C068009020688068009000BF00BF8E
:1014A00000BF012084F8510000BF002084F85000E4
:1014B00000BF0198FBE670B504462546681EB0F1F2
:1014C000807F01D301200FE0681E4FF0E0214861CA
:1014D0000F214FF0FF3001F081FB00204FF0E021A1
:1014E000886107200861002070BD000030B5024609
:1014F0000B4600BF92F83C00012801D1022030BD0C
:10150000012082F83C0000BF022082F83D001068F4
:1015100044681068816824F07004186804431068F7
:101520004460144D1068A84213D0134D1068A842AF
:101530000FD01068B0F1804F0BD0104D1068A8424A
:1015400007D00F4D1068A84203D00E4D1068A84276
:1015500005D121F0800158680143106881600120A5
:1015600082F83D0000BF002082F83C0000BF00BFB1
:10157000C5E70000002C0140003401400004004099
:1015800000080040000C004010B504460CB90120D2
:1015900010BD94F83D0028B9002084F83C00204696
:1015A00000F026F8022084F83D00211D206801F09B
:1015B000B7F8012084F8460000BF84F83E000121FE
:1015C0003F200155402001554120015500BF00BF7B
:1015D000012084F842004320015544200155452054
:1015E000015500BF012084F83D000020D0E7000035
:1015F00008B50168B1F1804F0DD100BF0649C96936
:1016000041F00101044AD1611146C96901F00101AB
:10161000009100BF00BF08BD001002402DE9F0415D
:1016200004460D4600BF94F83C00012802D1022078
:10163000BDE8F081012084F83C0000BF022084F85E
:101640003D002068866826F0770626F47F462068ED
:1016500086602868502833D00CDC202850D004DC69
:1016600000284BD0102851D149E0302849D04028DB
:101670004CD139E060282DD0702807D0B0F5805FBC
:1016800003D0B0F5005F41D10DE040E0D5E9021391
:101690006A68206801F0A3F82068866846F077063B
:1016A0002068866033E0D5E902136A68206801F09B
:1016B00096F82068806840F480402168886026E0C1
:1016C000EA686968206801F07BF95021206801F020
:1016D00091F81CE0EA686968206801F084F96021EB
:1016E000206801F087F812E0EA686968206801F074
:1016F00067F94021206801F07DF808E000BF00BFD5
:1017000000BF2968206801F075F800E000BF00BF45
:10171000012084F83D0000BF002084F83C0000BF99
:1017200000BF85E710B586B0044600200290039004
:10173000049005902068B0F1804F15D100BF0B4890
:10174000806940F00400094988610846806900F01A
:101750000400019000BF00BF02200290039005909A
:1017600002A90348FEF70CFF06B010BD00100240AE
:101770000008014070B504460D46164600BF94F8B7
:101780003C00012801D1022070BD012084F83C00FA
:1017900000BF36B1042E1BD0082E31D00C2E5ED1E6
:1017A00045E02946206801F02FF82068806940F064
:1017B0000800216888612068806920F004002168A1
:1017C000886120688069296908432168886147E049
:1017D0002946206801F050F82068806940F40060D4
:1017E000216888612068806920F4806021688861B0
:1017F00020688069296940EA0120216888612FE01A
:101800002946206801F076F82068C06940F0080099
:101810002168C8612068C06920F004002168C8619F
:101820002068C069296908432168C86118E0294611
:10183000206801F09BF82068C06940F400602168CE
:10184000C8612068C06920F480602168C861206890
:10185000C069296940EA01202168C86100E000BF31
:1018600000BF00BF002084F83C0000BF00BF8BE732
:1018700010B504460CB9012010BD94F83D0028B9FC
:10188000002084F83C00204600F025F8022084F86F
:101890003D00211D206800F043FF012084F8460030
:1018A00000BF84F83E0001213F2001554020015532
:1018B0004120015500BF00BF012084F842004320B1
:1018C0000155442001554520015500BF012084F8F1
:1018D0003D000020D0E7704770B504460D4615B9AD
:1018E00094F83E000BE0042D02D13F20005D06E09D
:1018F000082D02D14020005D01E04120005D01285B
:1019000001D0012070BD1DB9022084F83E000EE018
:10191000042D03D102213F20015508E0082D03D1F9
:1019200002214020015502E00221412001550122FF
:101930002946206800F042FF1F492068884203D0F2
:101940001E492068884201D1012000E0002028B112
:101950002068406C40F400402168486416492068C3
:10196000884213D01549206888420FD02068B0F112
:10197000804F0BD012492068884207D01149206857
:10198000884203D01049206888420CD120688068C2
:1019900000F00706062E0CD02068006840F0010019
:1019A0002168086005E02068006840F001002168B7
:1019B00008600020A6E70000002C01400034014030
:1019C0000004004000080040000C004010B5044630
:1019D0000CB9012010BDA06900B100E000BF94F86F
:1019E0003D0028B9002084F83C00204600F028F88B
:1019F000242084F83D002068C06820F4005021684D
:101A0000C860204601F004F82068006920F4904086
:101A1000216808612068406920F02A002168486137
:101A20002068C06840F400502168C860002020642D
:101A3000202084F83D0084F83E000020CAE7000022
:101A400010B586B0044600200290039004900590E3
:101A50001A49206888422ED100BF1948806940F495
:101A60008040174988610846806900F480400190F1
:101A700000BF00BF00BF0846806940F004008861D5
:101A80000846806900F00400019000BF00BF4815BF
:101A90000290022003900320059002A90948FEF756
:101AA0006FFD4FF48060029000200390049002A923
:101AB0000448FEF765FD06B010BD00000038014087
:101AC00000100240000801402DE9F84F04460E4680
:101AD000174699464FF0000A94F83D0020285AD145
:101AE00006B117B90120BDE8F88F00BF94F83C009B
:101AF000012801D10220F6E7012084F83C0000BF54
:101B000000202064212084F83D00FEF7E7FE824695
:101B1000A784E784A068B0F5805F04D1206910B97C
:101B20000025B04602E035464FF0000800BF002017
:101B300084F83C0000BF1BE0534600228021204671
:101B4000CDF8009000F0E2FF08B10320CBE745B9E3
:101B5000B8F80000C0F308002168486008F10208E6
:101B600003E02878216848606D1CE08C401EE0840A
:101B7000E08C0028E0D15346002240212046CDF8D9
:101B8000009000F0C3FF08B10320ACE7202084F8E8
:101B90003D000020A7E70220A5E700BFFEE7000008
:101BA00010B5012240210448FEF792FE0122802157
:101BB0000148FEF78DFE10BD000C014010B500F08D
:101BC00095FA00F06BF900F06FF9412000F001F890
:101BD00010BD10B50446412C25D108210846FEF75A
:101BE00045FC3D21112000F0C9FF8621172000F09F
:101BF000C5FF7F21262000F0C1FF1E212D2000F00F
:101C0000BDFF00212C2000F0B9FF8D212A2000F01B
:101C1000B5FF3E212B2000F0B1FF0A20FEF735FC76
:101C200000F042F901E0FF2010BD0020FCE70000B9
:101C300000B585B00020019002900390049000BF91
:101C40004648806940F02000444988610846806920
:101C500000F02000009000BF00BF00BF0846806970
:101C600040F0040088610846806900F0040000909C
:101C700000BF00BF00BF0846806940F008008861CF
:101C80000846806900F00800009000BF00BF0122F4
:101C900011213348FEF71CFE01224FF40C6131483C
:101CA000FEF716FE012204212F48FEF711FE112037
:101CB00001900120029003900220049001A928487D
:101CC000FEF75EFC4FF482700190284802900120DC
:101CD000039001A92248FEF753FC4FF48060019065
:101CE000224802900120039001A91E48FEF748FCFB
:101CF0004FF40060019001200290039002200490B4
:101D000001A91848FEF73CFC042001900120029034
:101D100003900220049001A91348FEF731FCC02073
:101D2000019011200290012003900320049001A94A
:101D30000C48FEF725FC00220F211720FEF74AFE73
:101D40001720FEF737FE00220F212820FEF742FE63
:101D50002820FEF72FFE05B000BD00000010024055
:101D600000080140000C0140001401400000211057
:101D700010B50F480F4908604FF482704860002189
:101D80000C488160C1600221016101214161490269
:101D900081610821C16100210162416281620A21E1
:101DA000C162FFF7D1F908B1FEF7C2FB10BD000018
:101DB000003001401C01002000B58DB000200990CA
:101DC0000A900B900C90079008901C216846FEF733
:101DD000E2F94FF080402049086041F61F4048601A
:101DE00000211D488160C821C1600021016180215E
:101DF0008161FFF7C9FB08B1FEF79AFB4FF48050F1
:101E0000099009A91448FFF709FC08B1FEF790FBF7
:101E10001148FFF72DFD08B1FEF78AFB002007905F
:101E2000089007A90C48FFF761FB08B1FEF780FB9B
:101E3000602000900A20019000200290049004226B
:101E400069460548FFF796FC08B1FEF771FB0248AA
:101E5000FFF768FC0DB000BD7401002010B50B4801
:101E60000B4908604FF4E130486000210848816068
:101E7000C16001610C21416100218161C161FFF7F5
:101E8000A5FD08B1FEF754FB10BD0000003801406D
:101E9000BC01002000BFFEE700BFFEE710B5032134
:101EA0001420FEF7E3FA10BD10B5142000F0E0F99D
:101EB000044604F0030018B90321142000F08DFA41
:101EC00010BDF0B587B00546002708210846FEF78B
:101ED000CDFA00210D2000F051FE80210E20FEF7EA
:101EE000C5FA93208DF8040020208DF8050006A87F
:101EF00001AB022201A900900C2000F01AF806465E
:101F000086B9002407E001A8005D285501A8005DFE
:101F10004740601CC4B2042CF5DB01A8005DB84248
:101F200000D0FE2680210E2000F057FA304607B080
:101F3000F0BD2DE9FE4F0646884691469A46DDF8EB
:101F400030B0FE2002900020019000900C2E06D0B0
:101F50000E2E09D1122001901020009005E077206C
:101F600001903020009000E000BF00BF019840F0D9
:101F70008001022000F002FE80210420FEF776FAA4
:101F80000021012000F0FAFD80210A2000F025FA4E
:101F9000002505E018F80510092000F0EFFD6D1C84
:101FA0004D45F7D33146012000F0E8FD0C2E03D15A
:101FB00080210D2000F011FA4FF4FA6500BF0420D3
:101FC00000F056F904466D1E35B104F0010018B951
:101FD000009820400028F2D080210D20FEF746FA1C
:101FE00095B3062000F044F900F01B0068BB002008
:101FF00002900198204000F0010008B1FF200290FB
:102000000C2E24D10A2000F033F904460C2000F0F5
:102010002FF900F007072FB1601E07EBC000CBF8C7
:10202000000002E0E000CBF8000004B90124122C0B
:1020300000DD1224002505E0092000F019F90AF856
:1020400005006D1CA542F7D301E0FE20029080211F
:102050000C2000F0C2F90021012000F08FFD029851
:10206000BDE8FE8F00B587B050208DF80400002039
:102070008DF805000DF10602022101A8FEF7FEF819
:1020800006A801AB042201A900900C20FFF751FF24
:10209000002007B000BD70B588B005460C46082189
:1020A0000846FEF7E3F907210D2000F067FD032144
:1020B000142000F092F98DF8085007A802AB012215
:1020C00002A900900C20FFF734FF06464EB907988E
:1020D000102806D19DF8080020709DF80900607056
:1020E00000E0FE26304608B070BD000010B50122A9
:1020F00011461A48FEF7ECFB0A20FEF7C6F900224B
:1021000001211648FEF7E4FB0A20FEF7BEF9012282
:1021100011461248FEF7DCFB6420FEF7B6F90F21EA
:10212000012000F02BFD3D21112000F027FD1E2194
:102130002D2000F023FD00212C2000F01FFD8D211B
:102140002A2000F01BFD3E212B2000F017FD40212E
:10215000152000F013FD002010BD00000008014014
:1021600070B588B0054693208DF8080070208DF872
:10217000090000208DF80E0000240BE0295D02AA62
:10218000A01C11549DF80E00295D48408DF80E00EA
:10219000601CC4B2042CF1DB0DF10F02072102A870
:1021A000FEF76CF808210846FEF760F907A802ABB5
:1021B000092202A900900C20FFF7BBFE064626B9B3
:1021C0000798182801D1002600E0FE26304608B006
:1021D00070BD38B518E069465220FFF75CFF044631
:1021E00004B911E069465220FFF755FF044604B9CF
:1021F0000AE069465220FFF74EFF044604B138BD9D
:102200000A20FEF742F900BFE5E7704770B50546C2
:1022100029465220FFF73FFF44B20CB1002070BDA9
:102220002846FFF74EFE44B20CB10020F7E72846DF
:10223000FFF796FF44B20CB10020F0E7FFF712FF62
:10224000FFF7C7FF0120EAE708B508490968C90890
:102250004FF47A72B1FBF2F14143009100BF00BF2D
:1022600000994A1E00920029F9D108BD14000020EF
:1022700010B50446002210210A48FEF729FB7E21F2
:1022800001EA440141F0800000F022F8FF2000F054
:102290001FF80446012210210248FEF719FB2046D0
:1022A00010BD000000080140F8B504460D46164672
:1022B0002B46002280212046009600F021F828B10C
:1022C000606D40F0200060650320F8BD0020FCE751
:1022D00001B582B000BF094800688068C0F34000C3
:1022E0000028F8D0FF20012301AA02A9009003488A
:1022F000FEF7CCFF9DF804000EBD00001C0100207D
:102300002DE9F84F04460D4690461E46DDF828900C
:10231000FEF7E4FAA0EB0900371AFEF7DFFA82466F
:102320002C480068C0F3CB307843009045E0701C27
:10233000002842D0FEF7D2FAA0EB0A00B84200D241
:10234000A7BB2068406820F0E00021684860606812
:10235000B0F5827F0DD1A068B0F5004F03D0A06822
:10236000B0F5806F05D12068006820F0400021683A
:102370000860A06AB0F5005F0DD100BF206800685A
:1023800020F40050216808602068006840F4005084
:102390002168086000BF012084F8510000BF0020C0
:1023A00084F8500000BF0320BDE8F88FFFE70098D5
:1023B00000B900270098401E0090206880682840DF
:1023C000A84201D1012000E000204045AFD100200B
:1023D000EAE7000014000020704770B505460C467F
:1023E00000262846FFF744FF064646EA0401284631
:1023F00000F0C4FB70BD000010B504461CB106A07F
:1024000000F0D4FB02E012A000F0D0FB4FF4FA6021
:10241000FEF792F810BD0000434C52283239293B98
:10242000534243283239293B44435633322832350C
:102430002C3231352C27BFA8C6ACD4F6BCD3B3C9D7
:10244000B9A6A3A1A3A1A3A1272C31293B0D0A0062
:10245000434C52283432293B534243283432293BDF
:1024600044435633322832352C3231352C27BFA81D
:10247000C6ACD4F6BCD3CAA7B0DCA3A1A3A1A3A1C8
:10248000272C3633293B0D0A0000000010B5044606
:102490001CB106A000F08AFB02E012A000F086FB4F
:1024A0004FF4FA60FEF748F810BD0000434C522884
:1024B0003239293B534243283239293B444356336E
:1024C000322832352C3231352C27BFA8C6ACC9BED4
:1024D000B3FDB3C9B9A6A3A1A3A1A3A1272C3129F8
:1024E0003B0D0A00434C52283432293B53424328C7
:1024F0003432293B44435633322832352C3231357D
:102500002C27BFA8C6ACC9BEB3FDCAA7B0DCA3A127
:10251000A3A1A3A1272C3633293B0D0A00000000FC
:1025200070B505461DB10DA000F040FB02E018A0FB
:1025300000F03CFB00240DE0C4EBC40000EB800085
:102540005A30C6B22048025D314620A000F02EFB72
:10255000601CC4B2042CEFDB70BD0000434C522859
:102560003239293B534243283239293B44435633BD
:10257000322835302C3231352C27BFAAC3C5B3C918
:10258000B9A6A3A1A3A1A3A1272C31293B0D0A0021
:10259000434C52283434293B534243283434293B9A
:1025A00044435633322835302C3231352C27BFAADC
:1025B000C3C5CAA7B0DCA3A1A3A1A3A1272C36330E
:1025C000293B0D0A00000000000000204443563360
:1025D000322825642C39302C272564272C363329C2
:1025E0003B0D0A0010B510A000F0E0FA9620FDF7B0
:1025F000A3FF1448007818B913A000F0D7FA12E02E
:1026000010480078012803D117A000F0CFFA0AE0A3
:102610000C480078022803D11CA000F0C7FA02E0A1
:1026200009A000F0C3FA10BD434C52283130293BB9
:10263000424C2830293B534243283130293B0D0A74
:102640000000000004000020444356333228393093
:102650002C3231352C27B5C8B4FDBFAAC3C5272CF1
:102660003630293B0D0A00004443563332283730B8
:102670002C3231352C27D5FDD4DAD4F6BCD3BFA803
:10268000C6AC272C36293B0D0A00000044435633C4
:10269000322837302C3231352C27D5FDD4DAC9BE5B
:1026A000B3FDBFA8C6AC272C33293B0D0A000000A0
:1026B00010B5FEF719F910BD00B58FB0282105A897
:1026C000FDF769FD14216846FDF765FD01200590C1
:1026D00000040690002007900120099002200C9031
:1026E000C1030D914FF4E0110E9105A8FEF7FAFA1F
:1026F00008B1FDF71DFF0F2000900220019000207F
:1027000002904FF4806003900020049002216846FC
:10271000FEF7B2F908B1FDF70BFF0FB000BD70472F
:1027200010B50268204B98420ED0204B98420BD037
:10273000B0F1804F08D01E4B984205D01D4B9842F7
:1027400002D01D4B984203D122F070024B681A430D
:10275000154B98420ED0154B98420BD0B0F1804FDC
:1027600008D0134B984205D0124B984202D0124B1E
:10277000984203D122F44072CB681A4322F08003BE
:102780004C6943EA040202608B68C3620B6883628F
:10279000054B984202D0054B984201D10B69036367
:1027A0000123436110BD0000002C014000340140B2
:1027B0000004004000080040000C004030B501F06B
:1027C0001F05012404FA05F3046A9C430462046AA9
:1027D00001F01F0502FA05F52C43046230BD30B547
:1027E0000C46816821F47F4142EA032525432943B1
:1027F000816030BD0A46816821F0700142F0070314
:10280000194381607047000030B5056A25F0010565
:102810000562026A4368846924F0700424F00304AA
:102820000D682C4322F002028D682A43104DA84205
:1028300000D103E00F4DA84206D100BF22F00802EC
:10284000CD682A4322F00402094DA84202D0094D66
:10285000A84207D123F4807323F400734D692B43FE
:102860008D692B43436084614D684563026230BDCE
:10287000002C01400034014030B5056A25F01005F8
:102880000562026A4368846924F4E04424F44074D5
:102890000D6844EA052422F020028D6842EA051200
:1028A000124DA84200D103E0114DA84207D100BF4C
:1028B00022F08002CD6842EA051222F040020B4D60
:1028C000A84202D00A4DA84209D123F4806323F420
:1028D00000634D6943EA85038D6943EA85034360DC
:1028E00084614D688563026230BD0000002C0140A8
:1028F0000034014030B5056A25F480750562026A2E
:102900004368C46924F0700424F003040D682C4368
:1029100022F400728D6842EA0522124DA84200D1CD
:1029200003E0114DA84207D100BF22F40062CD6838
:1029300042EA052222F480620A4DA84202D00A4DE2
:10294000A84209D123F4805323F400534D6943EA8C
:1029500005138D6943EA05134360C4614D68C5637F
:10296000026230BD002C01400034014030B5056AE0
:1029700025F480550562036A4468C26922F4E04286
:1029800022F440720D6842EA052223F400538D6858
:1029900043EA0533084DA84202D0084DA84204D1AD
:1029A00024F480444D6944EA85144460C2614D6852
:1029B0000564036230BD0000002C0140003401407A
:1029C00030B50B461446026A056A25F0010505621A
:1029D000816921F0F00141EA041122F00A021A4350
:1029E0008161026230BD30B50B461446056A25F0A0
:1029F000100505628169026A21F4704141EA0431DF
:102A000022F0A00242EA03128161026230BD00009E
:102A100070B504462168096921F44051E268114308
:102A2000226811612269A1681143626941EA0205C5
:102A30002168C96841F20C62914329432268D16040
:102A40002168496921F44071A269114322685161EA
:102A50002D4A2168914202D1FEF7EAF801E0FEF723
:102A6000D7F800EBC00101EB001162689200B1FBE6
:102A7000F2F100EBC00202EB001263689B00B2FBB4
:102A8000F3F26423B2FBF3F202EBC20303EB021294
:102A9000A1EB8201322202EB01116422B1FBF2F1BF
:102AA00001F0F00100EBC00202EB001263689B0032
:102AB000B2FBF3F26423B2FBF3F201EB021200EB80
:102AC000C00101EB001163689B00B1FBF3F100EB67
:102AD000C00303EB00136668B600B3FBF6F364268D
:102AE000B3FBF6F303EBC30606EB0313A1EB830181
:102AF000322303EB01116423B1FBF3F101F00F0169
:102B000011442268916070BD003801402DE9F04108
:102B100004460D4617469846069E21E0701CF8B103
:102B20002EB1FDF7DBFEA0EB0800B04218D92068FB
:102B3000C06820F4D0702168C8602068406920F027
:102B4000010021684861202084F83D0084F83E009F
:102B500000BF002084F83C0000BF0320BDE8F081E6
:102B6000206800682840A84201D1012000E0002030
:102B7000B842D3D00020F1E700BFFEE770B50446AD
:102B80000D46002210210848FDF7A2FE7E2101EA31
:102B90004400FFF79DFB2846FFF79AFB0122102116
:102BA0000148FDF795FE70BD000801400FB4054BCC
:102BB00010B503A9044A029800F034F810BC5DF87F
:102BC00014FB00008930000818000020024800684B
:102BD000C0F30220704700000CED00E010B50028A3
:102BE00004DB0A07130E054A135406E00A07140E05
:102BF000034A00F00F031B1FD45410BD00E400E093
:102C000018ED00E002E008C8121F08C1002AFAD13E
:102C100070477047002001E001C1121F002AFBD15C
:102C2000704700002DE9FF4F8DB00F460546002686
:102C300006E025280BD0DDE90F1290476D1C761CAD
:102C400028780028F5D111B03046BDE8F08F002477
:102C5000A246A1460122EC4900E0044315F8013FD9
:102C6000203B02FA03F00842F7D128782A2810D036
:102C70006FF02F022878A0F13001092914D80AEB4F
:102C80008A0102EB410144F0020400EB010A6D1CD1
:102C9000F0E701CF5FEA000A03D544F40054CAF11B
:102CA000000A44F002046D1C28782E2817D115F86C
:102CB000010F44F004042A280ED06FF02F02287868
:102CC000A0F1300109290AD809EB890102EB410181
:102CD00000EB01096D1CF2E757F8049B6D1C287886
:102CE0006C280FD006DC4C2817D068280DD06A2835
:102CF00014D104E0742810D07A280FD10DE044F4E8
:102D000000140AE044F4801401E044F440146978AB
:102D1000814202D104F580146D1C6D1C2A786E2A44
:102D20001FD00CDC632A31D004DC002A8BD0582A57
:102D300011D1A3E0642A68D0692A0CD165E0732A16
:102D40002ED004DC6F2A73D0702A04D19BE0752A40
:102D50006FD0782A6ED01046DDE90F129047761CAE
:102D600050E1C4F30250022806D0032809D00428F9
:102D700001CF09D0066045E101CFF117C0E900613C
:102D800040E101CF06803DE106703BE117F8040BFE
:102D90008DF8000000208DF80100EB46012003E0D3
:102DA00057F804BB4FF0FF3061074FF0000102D429
:102DB0000DE008F10101884649450FDA8045F8DB4E
:102DC0001BF808100029F4D108E008F10101884639
:102DD0008142FADB1BF808100029F6D1DDE90F2348
:102DE000AAEB08008146214600F036F9304400EB9A
:102DF000080604E0DDE90F121BF8010B9047B8F15B
:102E00000108F7D221464846F7E00A21C4F30253ED
:102E10004FF0000B0891022B04D001CFC117032BF8
:102E200009D00AE0FF1D27F00707F7E8020108E0D4
:102E300032E01FE020E000B2C117042B01D140B204
:102E4000C117031E71F1000307DA4FF0000CD0EB3D
:102E50000C006CEB01012D2302E0230504D52B238C
:102E60008DF82430012303E0E30701D02023F7E7A6
:102E7000984658E00A2110E010210EE010204FF093
:102E8000000B08900CE010214FF0000B44F00404FC
:102E90004FF00809089103E008214FF0000B08915A
:102EA000C4F30253022B04D001CF0021032B06D020
:102EB00006E0FF1D27F00707F7E8020103E080B2F4
:102EC000042B00D1C0B24FF0000823072BD5702A85
:102ED00007D0DDF820C08CF0100C5CEA0B0C05D09C
:102EE0000EE040238DF82430012308E050EA01036E
:102EF00006D030238DF824308DF825200223984603
:102F0000DDF820C08CF0080C5CEA0B0C0BD150EA09
:102F1000010301D1630706D530238DF824304FF02B
:102F20000108A9F10109582A04D038A20B9208AA75
:102F30000A920BE03AA2F9E75B46089AFDF736F9E8
:102F40000B9B9B5C0A9A521E0A92137050EA010274
:102F5000F2D10A98ADEB000000F1200B600702D51A
:102F600024F4803401E04FF00109D94502DDA9EBDA
:102F70000B0000E0002000EB0B0141440890AAEB9D
:102F8000010AE00306D4DDE90F232146504600F094
:102F900063F806444FF0000908E009A911F8090098
:102FA000DDE90F12904709F10109761CC145F4DBF8
:102FB000E0030CD5DDE90F232146504600F04CF824
:102FC000064404E0DDE90F1230209047761C089992
:102FD000481E08900029F5DC08E00A980A99007854
:102FE000491C0A91DDE90F129047761CBBF10001E4
:102FF000ABF1010BF1DC21465046DDE90F2300F077
:1030000019F806446D1C1BE60928010030313233E3
:103010003435363738396162636465660000000014
:1030200030313233343536373839414243444546FE
:10303000000000002DE9F041044600251E46174619
:10304000880404D405E039462020B0476D1C641E76
:10305000F9D52846BDE8F0812DE9F0410446002568
:103060001E469046C80301D5302700E0202788047B
:1030700004D505E041463846B0476D1C641EF9D5BD
:103080002846BDE8F081000013B50C46FF2301225D
:1030900069460248FEF718FD00981CBDBC010020DF
:1030A000FDF72EFCFFF708FBFEF7C2FDFEF760FE02
:1030B000FEF782FEFEF7D2FEFEF780FDFEF770FD02
:1030C00004212848FEF708FCFFF78CFA49E026485F
:1030D000FFF79CF8044604B943E02448007880B91F
:1030E0002148FDF701F928B10120FFF719FAFDF792
:1030F000D3F906E00020FFF713FA4FF4FA60FDF76A
:103100001BFA1A480078012810D11748FDF7ECF88F
:1031100018B10020FFF770F908E00120FFF76CF903
:103120001148FDF75FF90020104908700F4800783A
:10313000022813D10C48FDF7D7F860B10120FFF742
:10314000A5F90948FDF7D0F80546FDF70FF900206D
:103150000649087002E00020FFF798F9FFF742FAED
:1031600000BFB4E77401002000000020040000202C
:103170000000000000000000010203040607080927
:103180000000000001020304A83100080000002034
:103190001C000000042C0008C43100081C000020A2
:1031A000E4050000142C00080000000000000000EE
:1031B0000000000010000000010000000024F400E6
:0431C000000000000B
:0400000508000131BD
:00000001FF
