:020000040800F2
:100000000004002045010008490100084B010008D8
:100010004D0100084F0100085101000800000000D8
:100020000000000000000000000000005301000874
:1000300055010008000000005701000859010008A0
:100040005B0100085B0100085B0100085B01000820
:100050005B0100085B0100085B0100085B01000810
:100060005B0100085B0100085B0100085B01000800
:100070005B0100085B0100085B0100085B010008F0
:100080005B0100085B0100085B0100085B010008E0
:100090005B0100085B0100085B0100085B010008D0
:1000A0005B0100085B0100085B0100085B010008C0
:1000B0005B0100085B0100085B0100085B010008B0
:1000C0005B0100085B0100085B0100085B010008A0
:1000D0005B0100085B0100085B0100085B01000890
:1000E0005B0100085B0100085B0100085B01000880
:1000F0005B0100085B0100085B0100085B01000870
:100100005B0100085B0100085B0100085B0100085F
:100110005B0100085B0100085B0100085B0100084F
:100120005B0100085B0100085B0100085B0100083F
:10013000DFF80CD000F014F800480047A5010008D3
:100140000004002005480047FEE7FEE7FEE7FEE763
:10015000FEE7FEE7FEE7FEE7FEE7FEE73101000807
:10016000064C074D06E0E06840F0010394E8070004
:1001700098471034AC42F6D3FFF7DEFFE4010008E5
:10018000F401000802E008C8121F08C1002AFAD1D1
:1001900070477047002001E001C1121F002AFBD107
:1001A000704700000D48806940F004000B498861E9
:1001B0000B48006820F0FF00094908600846006805
:1001C00040F01100086006480C30006820F0030081
:1001D00003490C31086000BFFEE700000010024038
:1001E00000080140F40100080000002000040000A5
:0401F000940100086E
:0400000508000145A9
:00000001FF
