:020000040800F2
:1000000068040020CD010008D1010008D3010008D8
:10001000D5010008D7010008D90100080000000040
:10002000000000000000000000000000DB010008EC
:10003000DD01000800000000DF010008E101000808
:10004000E3010008E3010008E3010008E301000800
:10005000E3010008E3010008E3010008E3010008F0
:10006000E3010008E3010008E3010008E3010008E0
:10007000E3010008E3010008E3010008E3010008D0
:10008000E3010008E3010008E3010008E3010008C0
:10009000E3010008E3010008E3010008E3010008B0
:1000A000E3010008E3010008E3010008E3010008A0
:1000B00031060008E3010008E3010008E30100083D
:1000C000E3010008E3010008E3010008E301000880
:1000D000E301000841060008E3010008E30100080D
:1000E000E3010008E3010008E3010008E301000860
:1000F000E3010008E3010008E3010008E301000850
:10010000E3010008E3010008E3010008E30100083F
:10011000E3010008E3010008E3010008E30100082F
:10012000E3010008E3010008E3010008E30100081F
:1001300000F002F800F03AF80AA090E8000C8244BF
:100140008344AAF10107DA4501D100F02FF8AFF29C
:10015000090EBAE80F0013F0010F18BFFB1A43F0A5
:10016000010318471405000034050000103A24BFAD
:1001700078C878C1FAD8520724BF30C830C144BF0C
:1001800004680C607047000000230024002500264E
:10019000103A28BF78C1FBD8520728BF30C148BFEA
:1001A0000B6070471FB51FBD10B510BD00F02DF8D6
:1001B0001146FFF7F7FF00F04FFA00F04BF803B4D9
:1001C000FFF7F2FF03BC00F045FA000008480047C3
:1001D000FEE7FEE7FEE7FEE7FEE7FEE7FEE7FEE7F7
:1001E000FEE7FEE703480449024A044B704700005B
:1001F0003101000868000020680400206800002029
:1002000070477047704770477047754600F02CF88C
:10021000AE4605006946534620F00700854618B0F3
:1002200020B5FFF7DFFFBDE820404FF000064FF09C
:1002300000074FF000084FF0000B21F00701AC461B
:10024000ACE8C009ACE8C009ACE8C009ACE8C0093A
:100250008D46704710B50446AFF300802046BDE8D8
:100260001040FFF7ACBF00000048704704000020BA
:100270004FF0E0210A6922F004020A610649C00831
:1002800000EB40020870C2EBC0104FF6FF7202EAAA
:10029000C0004880704700000000002008494988DD
:1002A00048434FF0E02148610020886101220A6143
:1002B0000A69D30701D0D203FAD508618861704773
:1002C000000000200849097848434FF0E0214861C8
:1002D0000020886101220A610A69D30701D0D20394
:1002E000FAD5086188617047000000200F4800219E
:1002F0000161C160142242618161C161026842F002
:100300000102026042680A4B1A4042600268094BCF
:100310001A400260026822F480220260426822F4DD
:10032000FE0242608160C00300F006B80010024087
:100330000000FFF8FFFFF6FE024A114001430248A9
:100340000160704780FFFF1F08ED00E010B5044614
:100350000C2907D2DFE801F006080A0C0E1012146F
:1003600016181A1C402114E0F92112E0242110E093
:1003700030210EE019210CE012210AE0022108E0F0
:10038000F82106E0002104E0102102E0FF2100E056
:10039000BF2112B121F0800001E041F0800000F0A7
:1003A000E5F80F48016841F00F0101600D49E007D1
:1003B00003D0086840F001000860A00703D5086872
:1003C00040F002000860600703D5086840F00400B0
:1003D0000860200703D5086840F00800086010BDD9
:1003E000100801401408014038B50A216A46002867
:1003F00063DB4FF47A7390FBF3F393FBF1F401FBAF
:1004000014338DF80030642390FBF3F393FBF1F485
:1004100001FB14338DF8013090FBF1F393FBF1F401
:1004200001FB14338DF8023090FBF1F301FB130054
:100430008DF80300002004E01154401CC0B20428D1
:1004400002D2135C002BF7D09DF803100022082085
:10045000FFF77CFF0120FFF721FF00220A210F2078
:10046000FFF774FF9DF8021000220420FFF76EFFD3
:100470000120FFF713FF00220A210F20FFF766FF7C
:100480009DF8011000220220FFF760FF0120FFF716
:1004900005FF00220A210F20FFF758FF9DF80010EA
:1004A00000220120FFF752FF0120FFF7F7FE002294
:1004B0000A210F20FFF74AFF38BD1B4B90FBF3F3D7
:1004C00093FBF1F401FB14338DF800306FF06303FC
:1004D00090FBF3F393FBF1F401FB14338DF801303F
:1004E0006FF0090390FBF3F393FBF1F401FB14337A
:1004F0008DF80230404290FBF1F301FB13008DF8C0
:100500000300002004E01154401CC0B2042802D2B1
:10051000135C002BF7D00B2118B1104400F8011C1C
:1005200092E78DF800108FE718FCFFFF0C488169F7
:1005300041F0040181610B48016801F070410160E4
:100540000168094A1143016006480C30016821F036
:1005500070010160016841F00F0101607047000007
:1005600000100240000801403333330370B5154CCE
:1005700000220123211F256845F040052560C2F1B6
:10058000070503FA05F5054204D00D6845F010058E
:100590000D6003E0256845F0100525600D6845F005
:1005A00040050D60521CD2B2082AE4D3086840F01E
:1005B000200008600120FFF785FE206840F0200041
:1005C000206070BD1408014010B50446FFF78EFE90
:1005D0001549086840F4803008600868400CFCD079
:1005E0004FF480604860A41E4A68E0B242EA80404E
:1005F0004860486840F4803048600C48026842F027
:1006000032020260086840F0807008600868400E9E
:10061000FCD0486840F0020048604868C0F38100A0
:100620000228FAD110BD0000001002400020024054
:100630004FF08040018A018A21F001010182704758
:1006400003480088800602D50148001D00887047D5
:1006500000380140704700000920FFF7B5FF48202F
:10066000FFF706FEFFF762FF024C2046FFF7BCFED5
:10067000FBE700002EFBFFFF9806000800000020AB
:10068000040000006C0100089C0600080400002023
:0C06900064040000880100080000000065
:0400000508000131BD
:00000001FF
