:020000040800F2
:100000003804002045010008B9040008BD030008B9
:10001000B5040008B9010008BB0F0008000000008B
:100020000000000000000000000000009D0B000820
:10003000450200080000000053090008350D0008C3
:100040005F0100085F0100085F0100085F01000810
:100050005F0100085F0100085F0100085F01000800
:100060005F0100085F0100085F0100085F010008F0
:100070005F0100085F0100085F0100085F010008E0
:100080005F0100085F0100085F0100085F010008D0
:100090005F0100085F0100085F0100085F010008C0
:1000A0005F0100085F0100085F0100085F010008B0
:1000B0005F0100085F0100085F0100085F010008A0
:1000C0005F0100085F0100085F0100085F01000890
:1000D0005F010008990D00085F0100085F0100083A
:1000E0005F0100085F0100085F0100085F01000870
:1000F0005F0100085F0100085F0100085F01000860
:100100005F0100085F0100085F0100085F0100084F
:100110005F0100085F0100085F0100085F0100083F
:100120005F0100085F0100085F0100085F0100082F
:10013000DFF80CD000F02EF80048004799110008B5
:10014000380400200648804706480047FEE7FEE7DF
:10015000FEE7FEE7FEE7FEE7FEE7FEE7FEE7FEE777
:10016000390D00083101000830B50B46014600206A
:100170002022012409E021FA02F59D4205D303FA69
:1001800002F5491B04FA02F52844151EA2F10102EA
:10019000F1DC30BD064C074D06E0E06840F001039D
:1001A00094E8070098471034AC42F6D3FFF7C4FF39
:1001B0003C1300085C13000800BFFEE72DE9F04186
:1001C0000746884615460421052000F02DF8002139
:1001D000012000F0F4FE80210A2000F0E0FC002461
:1001E00005E0395D092000F0EAFE601CC4B2444518
:1001F000F7DB0321012000F0E2FEFF2400BF052011
:1002000000F022FC0646601EC4B21CB106F00400D9
:100210000028F4D0222000F017FC2870212000F0E4
:1002200013FC6870BDE8F08170B505460C460026E9
:10023000284600F009FC064626EA0401284600F09C
:10024000BEFE70BD704700B5034603E04FF47A7000
:1002500000F005F8181EA3F10103F7D100BD00EB73
:10026000C001C9004FF0E0225161002191610521D8
:10027000116100BF4FF0E021096901F480310029CC
:10028000F8D004214FF0E022116170472DE9F041D0
:10029000024600250026002000230024002791F8B4
:1002A00003C00CF00F0591F803C00CF0100CBCF16A
:1002B000000F03D091F802C04CEA050591F800C088
:1002C000BCF1000F31D0146800202BE04FF0010C7E
:1002D0000CFA00F3B1F800C00CEA03069E4220D1EC
:1002E00083004FF00F0C0CFA03F7BC4305FA03FC34
:1002F0004CEA040491F803C0BCF1280F06D14FF07A
:10030000010C0CFA00FCC2F814C00AE091F803C01A
:10031000BCF1480F05D14FF0010C0CFA00FCC2F8FB
:1003200010C0401C0828D1D31460B1F800C0BCF143
:10033000FF0F34DD546800202EE000F1080C4FF070
:10034000010808FA0CF3B1F800C00CEA03069E425B
:1003500021D183004FF00F0C0CFA03F7BC4305FAD0
:1003600003FC4CEA040491F803C0BCF1280F05D14A
:1003700000F1080C08FA0CF8C2F8148091F803C0D8
:10038000BCF1480F07D100F1080C4FF0010808FA42
:100390000CF8C2F81080401C0828CED35460BDE889
:1003A000F0810246002093680B400BB1012000E071
:1003B00000207047416170470161704700BFFEE750
:1003C00010B500F055FB00F039FA00F0AFF800F07E
:1003D000B3F8412000F001F810BD10B50446412CDF
:1003E00025D108210846FFF71FFF3D21112000F00D
:1003F000E6FD8621172000F0E2FD7F21262000F097
:10040000DEFD1E212D2000F0DAFD00212C2000F061
:10041000D6FD8D212A2000F0D2FD3E212B2000F0B8
:10042000CEFD0A20FFF70FFF00F086F801E0FF2065
:1004300010BD0020FCE7000000B500201549086150
:10044000C8601420486100208861C86108460068BF
:1004500040F001000860084640680F4908400D4917
:100460004860084600680D4908400A490860084687
:10047000006820F4802008600846406820F4FE00F0
:1004800048600020886000214FF0006000F008F80C
:1004900000BD0000001002400000FFF8FFFFF6FE64
:1004A000024A0A400243024B1A60704780FFFF1F56
:1004B00008ED00E000BFFEE77047000070B50021C6
:1004C00000230F22C47804B3154C246804F4E064BC
:1004D000C4F5E064210AC1F10403CA40447804FA77
:1004E00003F184781440214309010E4C0678A1558C
:1004F000047804F01F050124AC4005786D11AD00AF
:1005000005F1E025C5F8004109E0047804F01F0575
:100510000124AC40044D0678761145F8264070BDA4
:100520000CED00E000E400E080E100E010B5032104
:100530001420FFF779FE10BD10B5142000F084FAE6
:10054000044604F0030018B90321142000F027FB2F
:1005500010BDF0B587B00546002708210846FFF713
:1005600063FE00210D2000F02AFD80210E20FFF700
:100570005BFE93208DF8040020208DF8050006A86E
:1005800001AB022201A900900C2000F051F80646B0
:1005900086B9002407E001A8005D285501A8005D88
:1005A0004740601CC4B2042CF5DB01A8005DB842D2
:1005B00000D0FE2680210E2000F0F1FA304607B070
:1005C000F0BD2DE9F04387B006460F4690469946A8
:1005D0008DF804608DF80570002406E018F804100A
:1005E00001AAA01C1154601CC4B2062CF6DB002426
:1005F00007E019F8041001AA04F108001154601C66
:10060000C4B2062CF5DB06A801AB0C2201A90090B0
:100610000E2000F00DF805462DB9082000F014FA60
:1006200000F0080000B9FE25284607B0BDE8F083B9
:100630002DE9FE4F0646884691469A46DDF830B0D1
:10064000FE2002900020019000900C2E06D00E2E6D
:1006500009D1122001901020009005E07720019030
:100660003020009000E000BF00BF019840F0800102
:10067000022000F0A4FC80210420FFF7D5FD00211A
:10068000012000F09CFC80210A2000F088FA00255F
:1006900005E018F80510092000F091FC6D1C4D458F
:1006A000F7D33146012000F08AFC0C2E03D18021C3
:1006B0000D2000F074FA4FF4FA6500BF042000F03A
:1006C000C3F904466D1E35B104F0010018B9009855
:1006D00020400028F2D080210D20FFF7A5FD95B322
:1006E000062000F0B1F900F01B0068BB002002906A
:1006F0000198204000F0010008B1FF2002900C2E6C
:1007000024D10A2000F0A0F904460C2000F09CF946
:1007100000F007072FB1601E07EBC000CBF8000008
:1007200002E0E000CBF8000004B90124122C00DD47
:100730001224002505E0092000F086F90AF80500DA
:100740006D1CA542F7D301E0FE20029080210C2011
:1007500000F025FA0021012000F031FC0298BDE8EC
:10076000FE8F00B587B050208DF8040000208DF872
:1007700005000DF10602022101A8FFF71FFD06A8E2
:1007800001AB042201A900900C20FFF751FF0020CB
:1007900007B000BDF0B587B005460E4630208DF895
:1007A00004008DF805500DF10602022101A8FFF7A3
:1007B00005FD06A801AB042201A900900C20FFF75B
:1007C00037FF074667B90698902809D1002404E04E
:1007D00001A8005D3055601CC4B2102CF8DB00E0AD
:1007E000FE27384607B0F0BD70B588B005460C4608
:1007F00008210846FFF718FD07210D2000F0DFFB58
:100800000321142000F0CBF98DF8085007A802ABA3
:10081000012202A900900C20FFF70AFF06464EB9FC
:100820000798102806D19DF8080020709DF809004F
:10083000607000E0FE26304608B070BD10B50121A2
:100840001848FFF7B9FD0A20FFF7FDFC0121154804
:10085000FFF7B0FD0A20FFF7F6FC01211148FFF772
:10086000ABFD6420FFF7EFFC0F21012000F0A7FB98
:100870003D21112000F0A3FB1E212D2000F09FFB45
:1008800000212C2000F09BFB8D212A2000F097FBFB
:100890003E212B2000F093FB4021152000F08FFB20
:1008A000002010BD0008014070B588B005469320B7
:1008B0008DF8080070208DF8090000208DF80E00DA
:1008C00000240BE0295D02AAA01C11549DF80E0023
:1008D000295D48408DF80E00601CC4B2042CF1DB89
:1008E0000DF10F02072102A8FFF768FC0821084656
:1008F000FFF79AFC07A802AB092202A900900C207E
:10090000FFF796FE064626B90798182801D100265B
:1009100000E0FE26304608B070BD38B518E06946E4
:100920005220FFF761FF044604B911E069465220E6
:10093000FFF75AFF044604B90AE069465220FFF760
:1009400053FF044604B138BD0A20FFF77CFC00BF0A
:10095000E5E7704729B1064A92690243044B9A6160
:1009600004E0034A92698243014B9A617047000098
:100970000010024030B500210022002400232D4D3C
:100980006D6805F00C0121B1042905D0082923D197
:1009900005E0294D056022E0274D05601FE0254D4B
:1009A0006D6805F47012234D6D6805F480340225DE
:1009B00005EB92421CB9214D554305600BE01D4DDE
:1009C0006D6805F400351DB11C4D5543056002E00E
:1009D000194D5543056002E0174D056000BF00BF8B
:1009E000144D6D6805F0F0010909154D6B5C056843
:1009F000DD4045600F4D6D6805F4E061090A104D5A
:100A00006B5C4568DD4085600A4D6D6805F460519A
:100A1000C90A0B4D6B5C4568DD40C560054D6D68CE
:100A200005F44041890B074D6B5CC568B5FBF3F5D8
:100A3000056130BD0010024000127A0000093D003F
:100A4000000000201000002010B5044600F070F8EF
:100A50007E2101EA440141F0800000F071F8FF209E
:100A600000F06EF8044600F05BF8204610BD000070
:100A700008B501210420FFF76DFF0120ADF800004B
:100A800010208DF8030002208DF8020069462348EB
:100A9000FFF7FCFB01210420FFF75CFF4020ADF8CD
:100AA000000004208DF8030002208DF80200694642
:100AB0001A48FFF7EBFB01210420FFF74BFF8020D2
:100AC000ADF8000010208DF8030002208DF8020020
:100AD00069461248FFF7DAFB01210420FFF73AFFCD
:100AE0002020ADF8000010208DF8030002208DF8C2
:100AF000020069460948FFF7C9FB01210420FFF7FE
:100B000029FF1020ADF800008DF8030002208DF8B9
:100B1000020069460148FFF7B9FB08BD0008014023
:100B200010B510210148FFF747FC10BD0008014037
:100B300010B510210148FFF73DFC10BD0008014031
:100B400070B5044600261FE020211348FFF732FC51
:100B50006D0004F0800020B180210F48FFF72CFCCD
:100B600003E080210C48FFF725FC20210A48FFF70D
:100B700023FC40210848FFF714FC012801D145F06F
:100B800001056006040E761C082EDDDB20210248DC
:100B9000FFF712FCE8B270BD00080140704770B565
:100BA00005460C4600262846FFF74EFF064646EA55
:100BB0000401284600F003FA70BD10B500F002F8F9
:100BC00010BD00000CB50020019000903348006873
:100BD00040F480303149086000BF3048006800F4BC
:100BE000003000900198401C0190009818B90198BD
:100BF000B0F5A06FF1D12948006800F4003010B1C1
:100C00000120009001E0002000900098012843D1CD
:100C10002348006840F01000214908600846006839
:100C200020F0030008600846006840F002000860F9
:100C30001A484068194948600846406848600846B4
:100C4000406840F4806048600846406820F47C10AA
:100C500048600846406840F4E8104860084600686C
:100C600040F08070086000BF0C48006800F0007021
:100C70000028F9D00948406820F00300074948607F
:100C80000846406840F00200486000BF03484068E2
:100C900000F00C000828F9D10CBD00000010024043
:100CA0000020024030B504460025FFF7C5FB1F4871
:100CB000006840F480301D49086000BF1B48006890
:100CC000400C0028FAD04FF4806018494860A01EFC
:100CD000C4B20846406840EA84404860084640681C
:100CE00040F4803048601248006840F032001049FB
:100CF00008600E48006840F080700C49086000BF32
:100D00000A480068400E0028FAD00848406840F0C1
:100D100002000649486005E004484068C0F38705C2
:100D200005F00305022DF7D130BD00000010024090
:100D3000002002407047000010B51348006840F0E2
:100D400001001149086008464068104908400E49F2
:100D50004860084600680E4908400B49086008468C
:100D6000006820F4802008600846406820F4FE00F7
:100D700048604FF41F008860FFF71FFF4FF00060CE
:100D80000449086010BD0000001002400000FFF898
:100D9000FFFFF6FE08ED00E010B5044800F004F98E
:100DA00004462146014800F004F910BD0038014016
:100DB00000B587B0012144F20400FFF7CBFD1820F5
:100DC0008DF80B004FF40070ADF8080003208DF88B
:100DD0000A0002A91D48FFF759FA04208DF80B00FC
:100DE0000002ADF8080002A91848FFF74FFA4FF4C7
:100DF000165003900020ADF818000C20ADF8160036
:100E00000020ADF81400ADF81200ADF8100003A9F1
:100E10000F4800F05DF801210D4800F01BF8012299
:100E200040F225510A4800F02EF825208DF80400E4
:100E300001208DF8070000208DF805008DF80600D0
:100E400001A8FFF73BFB07B000BD00000008014010
:100E50000038014021B1828942F40052828104E0CD
:100E600082894DF6FF731A40828170470246002046
:100E7000B1F5007F00D100BF13880B400BB10120FA
:100E800000E000207047F0B503460024002600254E
:100E9000002040F66A17B94200D100BF1846C1F3DE
:100EA000421401F01F06012707FA06F5012C01D1B3
:100EB0000C3004E0022C01D1103000E014301AB1E3
:100EC00007682F43076002E00768AF430760F0BD83
:100ED0002DE9F04786B005460E460024A24600BF25
:100EE000A1460027B08900B100BF2F462C8A4CF6DE
:100EF000FF700440F08804432C82AC894EF6F31056
:100F00000440B08831890843718908430443AC81A7
:100F1000AC8A4FF6FF400440B0890443AC8201A87C
:100F2000FFF728FD1F48874202D1DDF810A001E03D
:100F3000DDF80CA0A88900F4004040B10AEBCA001B
:100F400000EB0A1031684900B0FBF1F807E00AEB4A
:100F5000CA0000EB0A1031688900B0FBF1F8642088
:100F6000B8FBF0F004012009642101FB1089A88975
:100F700000F4004040B1322000EBC900B0FBF1F0BA
:100F800000F00700044308E0322000EB0910642160
:100F9000B0FBF1F000F00F0004432C8106B0BDE877
:100FA000F08700000038014001468888C0F308003F
:100FB0007047C1F308028280704700BFFEE770B53A
:100FC00004460D46FFF7B4FD7E2101EA4400FFF719
:100FD000B7FD2846FFF7B4FDFFF7A2FD70BD000086
:100FE0000FB4054B10B503A9044A029800F018F895
:100FF00010BC5DF814FB00007511000820000020F3
:1010000002E008C8121F08C1002AFAD170477047D1
:10101000002001E001C1121F002AFBD1704700002F
:101020002DE9FF4F89B09B460446002506E02528A0
:101030000BD05A460B999047641C6D1C20780028F1
:10104000F5D10DB02846BDE8F08F0027B846012243
:10105000474900E0074314F8013F203B02FA03F040
:101060000842F7D120782E2819D114F8010F47F043
:1010700004072A280ED06FF02F022078A0F130014B
:1010800009290CD808EB880102EB410100EB0108AB
:10109000641CF2E70A98641C50F8048B0A902078CC
:1010A0000028CED0642808D0692806D075281ED024
:1010B0005A460B9990476D1C58E00A994FF00A095F
:1010C00001C90A91002802DA40422D2102E03905C7
:1010D00004D52B218DF82010012103E0F90704D05D
:1010E0002021F7E78A4608AE0DE00021FAE70A99C9
:1010F0004FF00A0901C90A91F7E74946FFF734F8AA
:10110000303106F8011D0028F7D1ADEB060000F1E3
:101110002009780701D44FF00108C84502DDA8EB8B
:10112000090000E000208046002706E008A85A4693
:10113000C05D0B9990476D1C7F1C5745F6DB04E0A2
:1011400030205A460B9990476D1CB8F10001A8F168
:101150000108F5DC05E016F8010B5A460B9990479B
:101160006D1CB9F10001A9F10109F4DC641C65E70B
:101170000928010070B504460D46E1B20548FFF7A5
:1011800018FF00BF80210348FFF770FE0028F9D048
:10119000204670BD0038014008B50920FFF782FDE8
:1011A000FFF70EF9FFF704FE40A0FFF719FF7CE000
:1011B00042495220FFF718FB054605B175E03F484C
:1011C000FFF7C7F9054605B16FE03C48FFF76CFB38
:1011D000054605B169E03948C07800903748837802
:1011E0004278017836A0FFF7FBFE002456E003208A
:1011F00000EB8400C1B2314B384A6020FFF7E1F9BF
:10120000054625B1214636A0FFF7EAFE44E003205B
:1012100000EB8400C1B2294B304A6120FFF7D1F9BD
:10122000054625B1214634A0FFF7DAFE34E000265A
:101230002CE006EB8401C8B23549FFF7ABFA05464E
:101240002DB106EB840133A0FFF7CAFE1CE006EBCC
:10125000840135A0FFF7C4FE00270FE0062F01D060
:101260000A2F04D1032E02D132A0FFF7B9FE28487D
:10127000C15D31A0FFF7B4FE781CC7B2102FEDDBC3
:1012800028A0FFF7ADFE00BF701CC6B2042ED0DB55
:1012900024A0FFF7A5FE00BF601CC4B2032CA6DB90
:1012A000FFF75FFAFFF739FB00BF81E7B3F5CABC70
:1012B000BBAFB3C9B9A60D0A00000000140000209E
:1012C000BFA8B5C4D0F2C1D0BAC5A3BA2564202541
:1012D000642025642025640A000000001800002016
:1012E000C9C8C7F82564C3DCC2EB41D1E9D6A4CA9A
:1012F000A7B0DC0A00000000C9C8C7F82564C3DC39
:10130000C2EB42D1E9D6A4CAA7B0DC0A00000000B3
:1013100024000020BFE92564CAFDBEDDB6C1C8A116
:10132000CAA7B0DC0A000000BFE92564CAFDBEDD23
:10133000A3BA000020200000256420005C130008F0
:1013400000000020240000000010000880130008A6
:101350002400002014040000101000080000000009
:101360000102030401020304060708090204060837
:1013700000000000FFFFFFFFFFFF00000000000073
:0400000508000145A9
:00000001FF
