:020000040800F2
:1000000030050020CD010008D1010008D30100080F
:10001000D5010008D7010008D90100080000000040
:10002000000000000000000000000000DB010008EC
:10003000DD01000800000000DF010008E101000808
:10004000E3010008E3010008E3010008E301000800
:10005000E3010008E3010008E3010008E3010008F0
:10006000E3010008E3010008E3010008E3010008E0
:10007000E3010008E3010008E3010008E3010008D0
:10008000E3010008E3010008E3010008E3010008C0
:10009000E3010008E3010008E3010008E3010008B0
:1000A000E3010008E3010008E3010008E3010008A0
:1000B000E3010008E3010008E3010008E301000890
:1000C000E3010008E3010008E3010008E301000880
:1000D000E30100087D030008E3010008E3010008D4
:1000E000E3010008E3010008E3010008E301000860
:1000F000E3010008E3010008E3010008E301000850
:10010000E3010008E3010008E3010008E30100083F
:10011000E3010008E3010008E3010008E30100082F
:10012000E3010008E3010008E3010008E30100081F
:1001300000F002F800F03AF80AA090E8000C8244BF
:100140008344AAF10107DA4501D100F02FF8AFF29C
:10015000090EBAE80F0013F0010F18BFFB1A43F0A5
:1001600001031847AC020000CC020000103A24BF83
:1001700078C878C1FAD8520724BF30C830C144BF0C
:1001800004680C607047000000230024002500264E
:10019000103A28BF78C1FBD8520728BF30C148BFEA
:1001A0000B6070471FB51FBD10B510BD00F02DF8D6
:1001B0001146FFF7F7FF00F025F900F04BF803B404
:1001C000FFF7F2FF03BC00F01BF9000008480047EE
:1001D000FEE7FEE7FEE7FEE7FEE7FEE7FEE7FEE7F7
:1001E000FEE7FEE703480449024A044B704700005B
:1001F00031010008300100203005002030010020CE
:1002000070477047704770477047754600F02CF88C
:10021000AE4605006946534620F00700854618B0F3
:1002200020B5FFF7DFFFBDE820404FF000064FF09C
:1002300000074FF000084FF0000B21F00701AC461B
:10024000ACE8C009ACE8C009ACE8C009ACE8C0093A
:100250008D46704710B50446AFF300802046BDE8D8
:100260001040FFF7ACBF000000487047D0000020EE
:1002700000B5002015490861C860142048610020BD
:100280008861C8610846006840F0010008600846BF
:1002900040680F4908400D494860084600680D490C
:1002A00008400A4908600846006820F48020086079
:1002B0000846406820F4FE00486000208860002165
:1002C0004FF0006000F008F800BD00000010024090
:1002D0000000FFF8FFFFF6FE024A0A400243024B0D
:1002E0001A60704780FFFF1F08ED00E030B504463C
:1002F0000025FFF7BDFF1F48006840F480301D490E
:10030000086000BF1B480068400C0028FAD04FF47A
:10031000806018494860A01EC4B20846406840EAA0
:10032000844048600846406840F480304860124885
:10033000006840F03200104908600E48006840F044
:1003400080700C49086000BF0A480068400E002811
:10035000FAD00848406840F002000649486005E0CD
:1003600004484068C0F3870505F00305022DF7D166
:1003700030BD000000100240002002401D490988E5
:1003800001F0200111B31B49091D0988C8B21A499F
:10039000098801F40041C9B91749098801F480416D
:1003A00061B10A2803D00021134A118020E01249CC
:1003B000098841F40041104A118019E00D2806D146
:1003C0000D49098841F480410B4A118010E00A4927
:1003D0000988C1F30D01094A505407490988491C8D
:1003E000054A118011460988C72901DD00211180C5
:1003F0007047000000380140040000200800002081
:1004000000BF70470920FFF771FF00BFFEE7000043
:100410003004000800000020080000006C01000803
:1004200038040008080000202805000088010008A2
:080430000000000000000000C4
:0400000508000131BD
:00000001FF
